{
  "_format": "hh-sol-artifact-1",
  "contractName": "Abstracto",
  "sourceName": "contracts/Abstracto.sol",
  "abi": [
    {
      "inputs": [
        {
          "internalType": "string",
          "name": "_unrevealedURI",
          "type": "string"
        },
        {
          "internalType": "address",
          "name": "_withdrawalAddress",
          "type": "address"
        }
      ],
      "stateMutability": "nonpayable",
      "type": "constructor"
    },
    {
      "anonymous": false,
      "inputs": [
        {
          "indexed": true,
          "internalType": "address",
          "name": "owner",
          "type": "address"
        },
        {
          "indexed": true,
          "internalType": "address",
          "name": "approved",
          "type": "address"
        },
        {
          "indexed": true,
          "internalType": "uint256",
          "name": "tokenId",
          "type": "uint256"
        }
      ],
      "name": "Approval",
      "type": "event"
    },
    {
      "anonymous": false,
      "inputs": [
        {
          "indexed": true,
          "internalType": "address",
          "name": "owner",
          "type": "address"
        },
        {
          "indexed": true,
          "internalType": "address",
          "name": "operator",
          "type": "address"
        },
        {
          "indexed": false,
          "internalType": "bool",
          "name": "approved",
          "type": "bool"
        }
      ],
      "name": "ApprovalForAll",
      "type": "event"
    },
    {
      "anonymous": false,
      "inputs": [
        {
          "indexed": true,
          "internalType": "address",
          "name": "previousOwner",
          "type": "address"
        },
        {
          "indexed": true,
          "internalType": "address",
          "name": "newOwner",
          "type": "address"
        }
      ],
      "name": "OwnershipTransferred",
      "type": "event"
    },
    {
      "anonymous": false,
      "inputs": [
        {
          "indexed": true,
          "internalType": "address",
          "name": "from",
          "type": "address"
        },
        {
          "indexed": true,
          "internalType": "address",
          "name": "to",
          "type": "address"
        },
        {
          "indexed": true,
          "internalType": "uint256",
          "name": "tokenId",
          "type": "uint256"
        }
      ],
      "name": "Transfer",
      "type": "event"
    },
    {
      "inputs": [
        {
          "internalType": "address",
          "name": "_user",
          "type": "address"
        },
        {
          "internalType": "uint256",
          "name": "_quantity",
          "type": "uint256"
        }
      ],
      "name": "airdrop",
      "outputs": [],
      "stateMutability": "nonpayable",
      "type": "function"
    },
    {
      "inputs": [
        {
          "internalType": "address",
          "name": "to",
          "type": "address"
        },
        {
          "internalType": "uint256",
          "name": "tokenId",
          "type": "uint256"
        }
      ],
      "name": "approve",
      "outputs": [],
      "stateMutability": "nonpayable",
      "type": "function"
    },
    {
      "inputs": [],
      "name": "auctionStart",
      "outputs": [
        {
          "internalType": "uint256",
          "name": "",
          "type": "uint256"
        }
      ],
      "stateMutability": "view",
      "type": "function"
    },
    {
      "inputs": [
        {
          "internalType": "address",
          "name": "owner",
          "type": "address"
        }
      ],
      "name": "balanceOf",
      "outputs": [
        {
          "internalType": "uint256",
          "name": "",
          "type": "uint256"
        }
      ],
      "stateMutability": "view",
      "type": "function"
    },
    {
      "inputs": [],
      "name": "baseURI",
      "outputs": [
        {
          "internalType": "string",
          "name": "",
          "type": "string"
        }
      ],
      "stateMutability": "view",
      "type": "function"
    },
    {
      "inputs": [],
      "name": "decrementAmount",
      "outputs": [
        {
          "internalType": "uint256",
          "name": "",
          "type": "uint256"
        }
      ],
      "stateMutability": "view",
      "type": "function"
    },
    {
      "inputs": [],
      "name": "decrementDuration",
      "outputs": [
        {
          "internalType": "uint256",
          "name": "",
          "type": "uint256"
        }
      ],
      "stateMutability": "view",
      "type": "function"
    },
    {
      "inputs": [],
      "name": "decrementInterval",
      "outputs": [
        {
          "internalType": "uint256",
          "name": "",
          "type": "uint256"
        }
      ],
      "stateMutability": "view",
      "type": "function"
    },
    {
      "inputs": [
        {
          "internalType": "uint256",
          "name": "tokenId",
          "type": "uint256"
        }
      ],
      "name": "getApproved",
      "outputs": [
        {
          "internalType": "address",
          "name": "",
          "type": "address"
        }
      ],
      "stateMutability": "view",
      "type": "function"
    },
    {
      "inputs": [],
      "name": "getCurrentPrice",
      "outputs": [
        {
          "internalType": "uint256",
          "name": "",
          "type": "uint256"
        }
      ],
      "stateMutability": "view",
      "type": "function"
    },
    {
      "inputs": [],
      "name": "getTimeLeft",
      "outputs": [
        {
          "internalType": "uint256",
          "name": "",
          "type": "uint256"
        }
      ],
      "stateMutability": "view",
      "type": "function"
    },
    {
      "inputs": [],
      "name": "isActive",
      "outputs": [
        {
          "internalType": "bool",
          "name": "",
          "type": "bool"
        }
      ],
      "stateMutability": "view",
      "type": "function"
    },
    {
      "inputs": [
        {
          "internalType": "address",
          "name": "owner",
          "type": "address"
        },
        {
          "internalType": "address",
          "name": "operator",
          "type": "address"
        }
      ],
      "name": "isApprovedForAll",
      "outputs": [
        {
          "internalType": "bool",
          "name": "",
          "type": "bool"
        }
      ],
      "stateMutability": "view",
      "type": "function"
    },
    {
      "inputs": [],
      "name": "maxMint",
      "outputs": [
        {
          "internalType": "uint256",
          "name": "",
          "type": "uint256"
        }
      ],
      "stateMutability": "view",
      "type": "function"
    },
    {
      "inputs": [],
      "name": "maxSupply",
      "outputs": [
        {
          "internalType": "uint256",
          "name": "",
          "type": "uint256"
        }
      ],
      "stateMutability": "view",
      "type": "function"
    },
    {
      "inputs": [],
      "name": "minimumPrice",
      "outputs": [
        {
          "internalType": "uint256",
          "name": "",
          "type": "uint256"
        }
      ],
      "stateMutability": "view",
      "type": "function"
    },
    {
      "inputs": [
        {
          "internalType": "uint256",
          "name": "quantity",
          "type": "uint256"
        }
      ],
      "name": "mint",
      "outputs": [],
      "stateMutability": "payable",
      "type": "function"
    },
    {
      "inputs": [],
      "name": "name",
      "outputs": [
        {
          "internalType": "string",
          "name": "",
          "type": "string"
        }
      ],
      "stateMutability": "view",
      "type": "function"
    },
    {
      "inputs": [],
      "name": "nextOwnerToExplicitlySet",
      "outputs": [
        {
          "internalType": "uint256",
          "name": "",
          "type": "uint256"
        }
      ],
      "stateMutability": "view",
      "type": "function"
    },
    {
      "inputs": [],
      "name": "owner",
      "outputs": [
        {
          "internalType": "address",
          "name": "",
          "type": "address"
        }
      ],
      "stateMutability": "view",
      "type": "function"
    },
    {
      "inputs": [
        {
          "internalType": "uint256",
          "name": "tokenId",
          "type": "uint256"
        }
      ],
      "name": "ownerOf",
      "outputs": [
        {
          "internalType": "address",
          "name": "",
          "type": "address"
        }
      ],
      "stateMutability": "view",
      "type": "function"
    },
    {
      "inputs": [],
      "name": "renounceOwnership",
      "outputs": [],
      "stateMutability": "nonpayable",
      "type": "function"
    },
    {
      "inputs": [],
      "name": "revealTime",
      "outputs": [
        {
          "internalType": "uint256",
          "name": "",
          "type": "uint256"
        }
      ],
      "stateMutability": "view",
      "type": "function"
    },
    {
      "inputs": [
        {
          "internalType": "address",
          "name": "from",
          "type": "address"
        },
        {
          "internalType": "address",
          "name": "to",
          "type": "address"
        },
        {
          "internalType": "uint256",
          "name": "tokenId",
          "type": "uint256"
        }
      ],
      "name": "safeTransferFrom",
      "outputs": [],
      "stateMutability": "nonpayable",
      "type": "function"
    },
    {
      "inputs": [
        {
          "internalType": "address",
          "name": "from",
          "type": "address"
        },
        {
          "internalType": "address",
          "name": "to",
          "type": "address"
        },
        {
          "internalType": "uint256",
          "name": "tokenId",
          "type": "uint256"
        },
        {
          "internalType": "bytes",
          "name": "_data",
          "type": "bytes"
        }
      ],
      "name": "safeTransferFrom",
      "outputs": [],
      "stateMutability": "nonpayable",
      "type": "function"
    },
    {
      "inputs": [
        {
          "internalType": "address",
          "name": "operator",
          "type": "address"
        },
        {
          "internalType": "bool",
          "name": "approved",
          "type": "bool"
        }
      ],
      "name": "setApprovalForAll",
      "outputs": [],
      "stateMutability": "nonpayable",
      "type": "function"
    },
    {
      "inputs": [
        {
          "internalType": "string",
          "name": "_baseURI",
          "type": "string"
        }
      ],
      "name": "setBaseURI",
      "outputs": [],
      "stateMutability": "nonpayable",
      "type": "function"
    },
    {
      "inputs": [
        {
          "internalType": "uint256",
          "name": "_amount",
          "type": "uint256"
        }
      ],
      "name": "setDecrementAmount",
      "outputs": [],
      "stateMutability": "nonpayable",
      "type": "function"
    },
    {
      "inputs": [
        {
          "internalType": "uint256",
          "name": "_maxPrice",
          "type": "uint256"
        },
        {
          "internalType": "uint256",
          "name": "_minPrice",
          "type": "uint256"
        },
        {
          "internalType": "uint256",
          "name": "_decInterval",
          "type": "uint256"
        },
        {
          "internalType": "uint256",
          "name": "_decAmount",
          "type": "uint256"
        }
      ],
      "name": "setDecrementFunction",
      "outputs": [],
      "stateMutability": "nonpayable",
      "type": "function"
    },
    {
      "inputs": [
        {
          "internalType": "uint256",
          "name": "_amount",
          "type": "uint256"
        }
      ],
      "name": "setDecrementInterval",
      "outputs": [],
      "stateMutability": "nonpayable",
      "type": "function"
    },
    {
      "inputs": [
        {
          "internalType": "uint256",
          "name": "_amount",
          "type": "uint256"
        }
      ],
      "name": "setMaxMint",
      "outputs": [],
      "stateMutability": "nonpayable",
      "type": "function"
    },
    {
      "inputs": [
        {
          "internalType": "uint256",
          "name": "_price",
          "type": "uint256"
        }
      ],
      "name": "setMinimumPrice",
      "outputs": [],
      "stateMutability": "nonpayable",
      "type": "function"
    },
    {
      "inputs": [
        {
          "internalType": "uint256",
          "name": "_timestamp",
          "type": "uint256"
        }
      ],
      "name": "setRevealTime",
      "outputs": [],
      "stateMutability": "nonpayable",
      "type": "function"
    },
    {
      "inputs": [
        {
          "internalType": "uint256",
          "name": "_price",
          "type": "uint256"
        }
      ],
      "name": "setStartingPrice",
      "outputs": [],
      "stateMutability": "nonpayable",
      "type": "function"
    },
    {
      "inputs": [
        {
          "internalType": "string",
          "name": "_uri",
          "type": "string"
        }
      ],
      "name": "setUnrevealedURI",
      "outputs": [],
      "stateMutability": "nonpayable",
      "type": "function"
    },
    {
      "inputs": [
        {
          "internalType": "address",
          "name": "_withdrawal",
          "type": "address"
        }
      ],
      "name": "setWithdrawalAddress",
      "outputs": [],
      "stateMutability": "nonpayable",
      "type": "function"
    },
    {
      "inputs": [],
      "name": "startAuction",
      "outputs": [],
      "stateMutability": "nonpayable",
      "type": "function"
    },
    {
      "inputs": [],
      "name": "startingPrice",
      "outputs": [
        {
          "internalType": "uint256",
          "name": "",
          "type": "uint256"
        }
      ],
      "stateMutability": "view",
      "type": "function"
    },
    {
      "inputs": [],
      "name": "stopAuction",
      "outputs": [],
      "stateMutability": "nonpayable",
      "type": "function"
    },
    {
      "inputs": [
        {
          "internalType": "bytes4",
          "name": "interfaceId",
          "type": "bytes4"
        }
      ],
      "name": "supportsInterface",
      "outputs": [
        {
          "internalType": "bool",
          "name": "",
          "type": "bool"
        }
      ],
      "stateMutability": "view",
      "type": "function"
    },
    {
      "inputs": [],
      "name": "symbol",
      "outputs": [
        {
          "internalType": "string",
          "name": "",
          "type": "string"
        }
      ],
      "stateMutability": "view",
      "type": "function"
    },
    {
      "inputs": [
        {
          "internalType": "uint256",
          "name": "index",
          "type": "uint256"
        }
      ],
      "name": "tokenByIndex",
      "outputs": [
        {
          "internalType": "uint256",
          "name": "",
          "type": "uint256"
        }
      ],
      "stateMutability": "view",
      "type": "function"
    },
    {
      "inputs": [
        {
          "internalType": "address",
          "name": "owner",
          "type": "address"
        },
        {
          "internalType": "uint256",
          "name": "index",
          "type": "uint256"
        }
      ],
      "name": "tokenOfOwnerByIndex",
      "outputs": [
        {
          "internalType": "uint256",
          "name": "",
          "type": "uint256"
        }
      ],
      "stateMutability": "view",
      "type": "function"
    },
    {
      "inputs": [
        {
          "internalType": "uint256",
          "name": "tokenId",
          "type": "uint256"
        }
      ],
      "name": "tokenURI",
      "outputs": [
        {
          "internalType": "string",
          "name": "uri",
          "type": "string"
        }
      ],
      "stateMutability": "view",
      "type": "function"
    },
    {
      "inputs": [],
      "name": "totalSupply",
      "outputs": [
        {
          "internalType": "uint256",
          "name": "",
          "type": "uint256"
        }
      ],
      "stateMutability": "view",
      "type": "function"
    },
    {
      "inputs": [
        {
          "internalType": "address",
          "name": "from",
          "type": "address"
        },
        {
          "internalType": "address",
          "name": "to",
          "type": "address"
        },
        {
          "internalType": "uint256",
          "name": "tokenId",
          "type": "uint256"
        }
      ],
      "name": "transferFrom",
      "outputs": [],
      "stateMutability": "nonpayable",
      "type": "function"
    },
    {
      "inputs": [
        {
          "internalType": "address",
          "name": "newOwner",
          "type": "address"
        }
      ],
      "name": "transferOwnership",
      "outputs": [],
      "stateMutability": "nonpayable",
      "type": "function"
    },
    {
      "inputs": [],
      "name": "unrevealedURI",
      "outputs": [
        {
          "internalType": "string",
          "name": "",
          "type": "string"
        }
      ],
      "stateMutability": "view",
      "type": "function"
    },
    {
      "inputs": [],
      "name": "withdraw",
      "outputs": [],
      "stateMutability": "nonpayable",
      "type": "function"
    },
    {
      "inputs": [],
      "name": "withdrawalAddress",
      "outputs": [
        {
          "internalType": "address",
          "name": "",
          "type": "address"
        }
      ],
      "stateMutability": "view",
      "type": "function"
    }
  ],
  "bytecode": "0x60c060405260008080556007556103e860a0526014600b5561012c600c5566071afd498d0000600d819055611c20600e5566b1a2bc2ec50000600f556010553480156200004b57600080fd5b5060405162003d1038038062003d108339810160408190526200006e9162000235565b60408051808201825260098082526841627374726163746f60b81b602080840182815285518087019096529285528401528151919291600a91620000b6916001919062000172565b508151620000cc90600290602085019062000172565b5060805250620000de90503362000120565b60016009558151620000f890601490602085019062000172565b50601580546001600160a01b0319166001600160a01b03929092169190911790555062000373565b600880546001600160a01b038381166001600160a01b0319831681179093556040519116919082907f8be0079c531659141344cd1fd0a4f28419497f9722a3daafe3b4186f6b6457e090600090a35050565b828054620001809062000320565b90600052602060002090601f016020900481019282620001a45760008555620001ef565b82601f10620001bf57805160ff1916838001178555620001ef565b82800160010185558215620001ef579182015b82811115620001ef578251825591602001919060010190620001d2565b50620001fd92915062000201565b5090565b5b80821115620001fd576000815560010162000202565b80516001600160a01b03811681146200023057600080fd5b919050565b6000806040838503121562000248578182fd5b82516001600160401b03808211156200025f578384fd5b818501915085601f83011262000273578384fd5b8151818111156200028857620002886200035d565b604051601f8201601f19908116603f01168101908382118183101715620002b357620002b36200035d565b81604052828152602093508884848701011115620002cf578687fd5b8691505b82821015620002f25784820184015181830185015290830190620002d3565b828211156200030357868484830101525b95506200031591505085820162000218565b925050509250929050565b600181811c908216806200033557607f821691505b602082108114156200035757634e487b7160e01b600052602260045260246000fd5b50919050565b634e487b7160e01b600052604160045260246000fd5b60805160a05161395b620003b5600039600081816107fd015281816119f60152611b8b0152600081816127650152818161278f0152612e79015261395b6000f3fe6080604052600436106103295760003560e01c80636c0360eb116101a5578063b88d4fde116100ec578063d6fbf20211610095578063eb91d37e1161006f578063eb91d37e14610894578063f2bcd022146108a9578063f2fde38b146108c9578063fe2c7fee146108e957600080fd5b8063d6fbf2021461081f578063d7224ba014610835578063e985e9c51461084b57600080fd5b8063c7e284b8116100c6578063c7e284b8146107b6578063c87b56dd146107cb578063d5abeb01146107eb57600080fd5b8063b88d4fde14610760578063ba829d7114610780578063c1e285071461079657600080fd5b80638ba4cc3c1161014e5780639b3e45b4116101285780639b3e45b414610717578063a0712d681461072d578063a22cb4651461074057600080fd5b80638ba4cc3c146106c45780638da5cb5b146106e457806395d89b411461070257600080fd5b8063715018a61161017f578063715018a6146106835780637501f741146106985780637f386b6c146106ae57600080fd5b80636c0360eb146106395780637035bf181461064e57806370a082311461066357600080fd5b8063269b9a08116102745780634f6ccce71161021d5780636352211e116101f75780636352211e146105ce57806364d89444146105ee5780636b43d9941461060e5780636b64c7691461062457600080fd5b80634f6ccce71461056e578063547520fe1461058e57806355f804b3146105ae57600080fd5b80633ccfd60b1161024e5780633ccfd60b1461052357806342842e0e146105385780634f245ef71461055857600080fd5b8063269b9a08146104d85780632cf4063c146104ed5780632f745c591461050357600080fd5b806318160ddd116102d657806323b872dd116102b057806323b872dd1461047857806325ce04161461049857806325cea976146104b857600080fd5b806318160ddd1461041f57806321b8092e1461043e57806322f3e2d41461045e57600080fd5b8063081812fc11610307578063081812fc146103a7578063095ea7b3146103df5780630f73b4f4146103ff57600080fd5b8063011548241461032e57806301ffc9a71461035057806306fdde0314610385575b600080fd5b34801561033a57600080fd5b5061034e610349366004613482565b610909565b005b34801561035c57600080fd5b5061037061036b366004613404565b6109bd565b60405190151581526020015b60405180910390f35b34801561039157600080fd5b5061039a610aee565b60405161037c9190613676565b3480156103b357600080fd5b506103c76103c2366004613482565b610b80565b6040516001600160a01b03909116815260200161037c565b3480156103eb57600080fd5b5061034e6103fa3660046133db565b610c1b565b34801561040b57600080fd5b5061034e61041a366004613482565b610d4e565b34801561042b57600080fd5b506000545b60405190815260200161037c565b34801561044a57600080fd5b5061034e6104593660046132a1565b610dff565b34801561046a57600080fd5b506012546103709060ff1681565b34801561048457600080fd5b5061034e6104933660046132ed565b610e93565b3480156104a457600080fd5b5061034e6104b3366004613482565b610e9e565b3480156104c457600080fd5b5061034e6104d3366004613482565b610f5c565b3480156104e457600080fd5b5061034e61100d565b3480156104f957600080fd5b50610430600d5481565b34801561050f57600080fd5b5061043061051e3660046133db565b6110e3565b34801561052f57600080fd5b5061034e61128c565b34801561054457600080fd5b5061034e6105533660046132ed565b611349565b34801561056457600080fd5b50610430600a5481565b34801561057a57600080fd5b50610430610589366004613482565b611364565b34801561059a57600080fd5b5061034e6105a9366004613482565b6113e0565b3480156105ba57600080fd5b5061034e6105c936600461343c565b61148f565b3480156105da57600080fd5b506103c76105e9366004613482565b611500565b3480156105fa57600080fd5b5061034e61060936600461349a565b611512565b34801561061a57600080fd5b50610430600e5481565b34801561063057600080fd5b5061034e6116f1565b34801561064557600080fd5b5061039a6117ed565b34801561065a57600080fd5b5061039a61187b565b34801561066f57600080fd5b5061043061067e3660046132a1565b611888565b34801561068f57600080fd5b5061034e611934565b3480156106a457600080fd5b50610430600b5481565b3480156106ba57600080fd5b5061043060105481565b3480156106d057600080fd5b5061034e6106df3660046133db565b61199a565b3480156106f057600080fd5b506008546001600160a01b03166103c7565b34801561070e57600080fd5b5061039a611a81565b34801561072357600080fd5b50610430600c5481565b61034e61073b366004613482565b611a90565b34801561074c57600080fd5b5061034e61075b3660046133a1565b611ce4565b34801561076c57600080fd5b5061034e61077b366004613328565b611dc7565b34801561078c57600080fd5b5061043060115481565b3480156107a257600080fd5b5061034e6107b1366004613482565b611e56565b3480156107c257600080fd5b50610430611eb0565b3480156107d757600080fd5b5061039a6107e6366004613482565b611edb565b3480156107f757600080fd5b506104307f000000000000000000000000000000000000000000000000000000000000000081565b34801561082b57600080fd5b50610430600f5481565b34801561084157600080fd5b5061043060075481565b34801561085757600080fd5b506103706108663660046132bb565b6001600160a01b03918216600090815260066020908152604080832093909416825291909152205460ff1690565b3480156108a057600080fd5b506104306120d2565b3480156108b557600080fd5b506015546103c7906001600160a01b031681565b3480156108d557600080fd5b5061034e6108e43660046132a1565b6120e1565b3480156108f557600080fd5b5061034e61090436600461343c565b6121c0565b6008546001600160a01b031633146109685760405162461bcd60e51b815260206004820181905260248201527f4f776e61626c653a2063616c6c6572206973206e6f7420746865206f776e657260448201526064015b60405180910390fd5b600081116109b85760405162461bcd60e51b815260206004820152600e60248201527f414d4f554e545f544f4f5f4c4f57000000000000000000000000000000000000604482015260640161095f565b600c55565b60007fffffffff0000000000000000000000000000000000000000000000000000000082167f80ac58cd000000000000000000000000000000000000000000000000000000001480610a5057507fffffffff0000000000000000000000000000000000000000000000000000000082167f5b5e139f00000000000000000000000000000000000000000000000000000000145b80610a9c57507fffffffff0000000000000000000000000000000000000000000000000000000082167f780e9d6300000000000000000000000000000000000000000000000000000000145b80610ae857507f01ffc9a7000000000000000000000000000000000000000000000000000000007fffffffff000000000000000000000000000000000000000000000000000000008316145b92915050565b606060018054610afd906137cf565b80601f0160208091040260200160405190810160405280929190818152602001828054610b29906137cf565b8015610b765780601f10610b4b57610100808354040283529160200191610b76565b820191906000526020600020905b815481529060010190602001808311610b5957829003601f168201915b5050505050905090565b6000610b8d826000541190565b610bff5760405162461bcd60e51b815260206004820152602d60248201527f455243373231413a20617070726f76656420717565727920666f72206e6f6e6560448201527f78697374656e7420746f6b656e00000000000000000000000000000000000000606482015260840161095f565b506000908152600560205260409020546001600160a01b031690565b6000610c2682611500565b9050806001600160a01b0316836001600160a01b03161415610cb05760405162461bcd60e51b815260206004820152602260248201527f455243373231413a20617070726f76616c20746f2063757272656e74206f776e60448201527f6572000000000000000000000000000000000000000000000000000000000000606482015260840161095f565b336001600160a01b0382161480610ccc5750610ccc8133610866565b610d3e5760405162461bcd60e51b815260206004820152603960248201527f455243373231413a20617070726f76652063616c6c6572206973206e6f74206f60448201527f776e6572206e6f7220617070726f76656420666f7220616c6c00000000000000606482015260840161095f565b610d4983838361222d565b505050565b6008546001600160a01b03163314610da85760405162461bcd60e51b815260206004820181905260248201527f4f776e61626c653a2063616c6c6572206973206e6f7420746865206f776e6572604482015260640161095f565b601054811015610dfa5760405162461bcd60e51b815260206004820152600d60248201527f4c4553535f5448414e5f4d494e00000000000000000000000000000000000000604482015260640161095f565b600f55565b6008546001600160a01b03163314610e595760405162461bcd60e51b815260206004820181905260248201527f4f776e61626c653a2063616c6c6572206973206e6f7420746865206f776e6572604482015260640161095f565b601580547fffffffffffffffffffffffff0000000000000000000000000000000000000000166001600160a01b0392909216919091179055565b610d498383836122a1565b6008546001600160a01b03163314610ef85760405162461bcd60e51b815260206004820181905260248201527f4f776e61626c653a2063616c6c6572206973206e6f7420746865206f776e6572604482015260640161095f565b601054600f54610f089190613757565b811115610f575760405162461bcd60e51b815260206004820152601360248201527f44454352454d454e545f544f4f5f4c4152474500000000000000000000000000604482015260640161095f565b600d55565b6008546001600160a01b03163314610fb65760405162461bcd60e51b815260206004820181905260248201527f4f776e61626c653a2063616c6c6572206973206e6f7420746865206f776e6572604482015260640161095f565b600f548111156110085760405162461bcd60e51b815260206004820152601060248201527f475245415445525f5448414e5f4d415800000000000000000000000000000000604482015260640161095f565b601055565b6008546001600160a01b031633146110675760405162461bcd60e51b815260206004820181905260248201527f4f776e61626c653a2063616c6c6572206973206e6f7420746865206f776e6572604482015260640161095f565b60125460ff166110b95760405162461bcd60e51b815260206004820152601060248201527f414c52454144595f494e41435449564500000000000000000000000000000000604482015260640161095f565b601280547fffffffffffffffffffffffffffffffffffffffffffffffffffffffffffffff00169055565b60006110ee83611888565b82106111625760405162461bcd60e51b815260206004820152602260248201527f455243373231413a206f776e657220696e646578206f7574206f6620626f756e60448201527f6473000000000000000000000000000000000000000000000000000000000000606482015260840161095f565b600080549080805b8381101561121d576000818152600360209081526040918290208251808401909352546001600160a01b0381168084527401000000000000000000000000000000000000000090910467ffffffffffffffff1691830191909152156111ce57805192505b876001600160a01b0316836001600160a01b0316141561120a57868414156111fc57509350610ae892505050565b836112068161381d565b9450505b50806112158161381d565b91505061116a565b5060405162461bcd60e51b815260206004820152602e60248201527f455243373231413a20756e61626c6520746f2067657420746f6b656e206f662060448201527f6f776e657220627920696e646578000000000000000000000000000000000000606482015260840161095f565b6008546001600160a01b031633146112e65760405162461bcd60e51b815260206004820181905260248201527f4f776e61626c653a2063616c6c6572206973206e6f7420746865206f776e6572604482015260640161095f565b6015546040516000916001600160a01b03169047908381818185875af1925050503d8060008114611333576040519150601f19603f3d011682016040523d82523d6000602084013e611338565b606091505b505090508061134657600080fd5b50565b610d4983838360405180602001604052806000815250611dc7565b6000805482106113dc5760405162461bcd60e51b815260206004820152602360248201527f455243373231413a20676c6f62616c20696e646578206f7574206f6620626f7560448201527f6e64730000000000000000000000000000000000000000000000000000000000606482015260840161095f565b5090565b6008546001600160a01b0316331461143a5760405162461bcd60e51b815260206004820181905260248201527f4f776e61626c653a2063616c6c6572206973206e6f7420746865206f776e6572604482015260640161095f565b6000811161148a5760405162461bcd60e51b815260206004820152600e60248201527f414d4f554e545f544f4f5f4c4f57000000000000000000000000000000000000604482015260640161095f565b600b55565b6008546001600160a01b031633146114e95760405162461bcd60e51b815260206004820181905260248201527f4f776e61626c653a2063616c6c6572206973206e6f7420746865206f776e6572604482015260640161095f565b80516114fc906013906020840190613166565b5050565b600061150b826126d0565b5192915050565b6008546001600160a01b0316331461156c5760405162461bcd60e51b815260206004820181905260248201527f4f776e61626c653a2063616c6c6572206973206e6f7420746865206f776e6572604482015260640161095f565b828410156115bc5760405162461bcd60e51b815260206004820152601160248201527f4d41585f4c4553535f5448414e5f4d494e000000000000000000000000000000604482015260640161095f565b6000821161160c5760405162461bcd60e51b815260206004820152601060248201527f494e54455256414c5f544f4f5f4c4f5700000000000000000000000000000000604482015260640161095f565b60006116188486613757565b90508082111561166a5760405162461bcd60e51b815260206004820152601360248201527f4445435f414d4f554e545f544f4f5f4849474800000000000000000000000000604482015260640161095f565b6116748282613856565b156116c15760405162461bcd60e51b815260206004820152601460248201527f4e4f545f4556454e4c595f444956495349424c45000000000000000000000000604482015260640161095f565b826116cc83836136d5565b6116d691906136e9565b600e5550600f93909355601091909155600d91909155600c55565b6008546001600160a01b0316331461174b5760405162461bcd60e51b815260206004820181905260248201527f4f776e61626c653a2063616c6c6572206973206e6f7420746865206f776e6572604482015260640161095f565b60125460ff161561179e5760405162461bcd60e51b815260206004820152600f60248201527f414c52454144595f535441525445440000000000000000000000000000000000604482015260640161095f565b601280547fffffffffffffffffffffffffffffffffffffffffffffffffffffffffffffff0016600117905542600a819055600e546117db916136bd565b6117e8906202a3006136bd565b601155565b601380546117fa906137cf565b80601f0160208091040260200160405190810160405280929190818152602001828054611826906137cf565b80156118735780601f1061184857610100808354040283529160200191611873565b820191906000526020600020905b81548152906001019060200180831161185657829003601f168201915b505050505081565b601480546117fa906137cf565b60006001600160a01b0382166119065760405162461bcd60e51b815260206004820152602b60248201527f455243373231413a2062616c616e636520717565727920666f7220746865207a60448201527f65726f2061646472657373000000000000000000000000000000000000000000606482015260840161095f565b506001600160a01b03166000908152600460205260409020546fffffffffffffffffffffffffffffffff1690565b6008546001600160a01b0316331461198e5760405162461bcd60e51b815260206004820181905260248201527f4f776e61626c653a2063616c6c6572206973206e6f7420746865206f776e6572604482015260640161095f565b61199860006128ac565b565b6008546001600160a01b031633146119f45760405162461bcd60e51b815260206004820181905260248201527f4f776e61626c653a2063616c6c6572206973206e6f7420746865206f776e6572604482015260640161095f565b7f000000000000000000000000000000000000000000000000000000000000000081611a1f60005490565b611a2991906136bd565b1115611a775760405162461bcd60e51b815260206004820152601260248201527f4d41585f535550504c595f524541434845440000000000000000000000000000604482015260640161095f565b6114fc8282612916565b606060028054610afd906137cf565b60026009541415611ae35760405162461bcd60e51b815260206004820152601f60248201527f5265656e7472616e637947756172643a207265656e7472616e742063616c6c00604482015260640161095f565b600260095560125460ff16611b3a5760405162461bcd60e51b815260206004820152601060248201527f53414c455f4e4f545f5354415254454400000000000000000000000000000000604482015260640161095f565b323314611b895760405162461bcd60e51b815260206004820152601860248201527f43414c4c45525f43414e27545f42455f434f4e54524143540000000000000000604482015260640161095f565b7f000000000000000000000000000000000000000000000000000000000000000081611bb460005490565b611bbe91906136bd565b1115611c0c5760405162461bcd60e51b815260206004820152601260248201527f4d41585f535550504c595f524541434845440000000000000000000000000000604482015260640161095f565b600b5481611c1933612930565b611c2391906136bd565b1115611c715760405162461bcd60e51b815260206004820152601160248201527f45584345444545445f4d41585f4d494e54000000000000000000000000000000604482015260640161095f565b611c796129f0565b611c8390826136e9565b341015611cd25760405162461bcd60e51b815260206004820152601460248201527f50524943453a2056414c55455f544f4f5f4c4f57000000000000000000000000604482015260640161095f565b611cdc3382612916565b506001600955565b6001600160a01b038216331415611d3d5760405162461bcd60e51b815260206004820152601a60248201527f455243373231413a20617070726f766520746f2063616c6c6572000000000000604482015260640161095f565b3360008181526006602090815260408083206001600160a01b0387168085529083529281902080547fffffffffffffffffffffffffffffffffffffffffffffffffffffffffffffff001686151590811790915590519081529192917f17307eab39ab6107e8899845ad3d59bd9653f200f220920489ca2b5937696c31910160405180910390a35050565b611dd28484846122a1565b611dde84848484612a54565b611e505760405162461bcd60e51b815260206004820152603360248201527f455243373231413a207472616e7366657220746f206e6f6e204552433732315260448201527f6563656976657220696d706c656d656e74657200000000000000000000000000606482015260840161095f565b50505050565b6008546001600160a01b031633146117e85760405162461bcd60e51b815260206004820181905260248201527f4f776e61626c653a2063616c6c6572206973206e6f7420746865206f776e6572604482015260640161095f565b600080600c54600a5442611ec49190613757565b611ece9190613856565b600c54610ae89190613757565b6060611ee8826000541190565b611f5a5760405162461bcd60e51b815260206004820152602f60248201527f4552433732314d657461646174613a2055524920717565727920666f72206e6f60448201527f6e6578697374656e7420746f6b656e0000000000000000000000000000000000606482015260840161095f565b601154421061203b57600060138054611f72906137cf565b9050116120095760148054611f86906137cf565b80601f0160208091040260200160405190810160405280929190818152602001828054611fb2906137cf565b8015611fff5780601f10611fd457610100808354040283529160200191611fff565b820191906000526020600020905b815481529060010190602001808311611fe257829003601f168201915b5050505050612035565b601361201483612c20565b604051602001612025929190613531565b6040516020818303038152906040525b50919050565b60148054612048906137cf565b80601f0160208091040260200160405190810160405280929190818152602001828054612074906137cf565b80156120c15780601f10612096576101008083540402835291602001916120c1565b820191906000526020600020905b8154815290600101906020018083116120a457829003601f168201915b50505050509050919050565b919050565b60006120dc6129f0565b905090565b6008546001600160a01b0316331461213b5760405162461bcd60e51b815260206004820181905260248201527f4f776e61626c653a2063616c6c6572206973206e6f7420746865206f776e6572604482015260640161095f565b6001600160a01b0381166121b75760405162461bcd60e51b815260206004820152602660248201527f4f776e61626c653a206e6577206f776e657220697320746865207a65726f206160448201527f6464726573730000000000000000000000000000000000000000000000000000606482015260840161095f565b611346816128ac565b6008546001600160a01b0316331461221a5760405162461bcd60e51b815260206004820181905260248201527f4f776e61626c653a2063616c6c6572206973206e6f7420746865206f776e6572604482015260640161095f565b80516114fc906014906020840190613166565b60008281526005602052604080822080547fffffffffffffffffffffffff0000000000000000000000000000000000000000166001600160a01b0387811691821790925591518593918516917f8c5be1e5ebec7d5bd14f71427d1e84f3dd0314c0f7b2291e5b200ac8c7c3b92591a4505050565b60006122ac826126d0565b80519091506000906001600160a01b0316336001600160a01b031614806122e35750336122d884610b80565b6001600160a01b0316145b806122f5575081516122f59033610866565b90508061236a5760405162461bcd60e51b815260206004820152603260248201527f455243373231413a207472616e736665722063616c6c6572206973206e6f742060448201527f6f776e6572206e6f7220617070726f7665640000000000000000000000000000606482015260840161095f565b846001600160a01b031682600001516001600160a01b0316146123f55760405162461bcd60e51b815260206004820152602660248201527f455243373231413a207472616e736665722066726f6d20696e636f727265637460448201527f206f776e65720000000000000000000000000000000000000000000000000000606482015260840161095f565b6001600160a01b0384166124715760405162461bcd60e51b815260206004820152602560248201527f455243373231413a207472616e7366657220746f20746865207a65726f20616460448201527f6472657373000000000000000000000000000000000000000000000000000000606482015260840161095f565b612481600084846000015161222d565b6001600160a01b03851660009081526004602052604081208054600192906124bc9084906fffffffffffffffffffffffffffffffff16613726565b82546101009290920a6fffffffffffffffffffffffffffffffff8181021990931691831602179091556001600160a01b0386166000908152600460205260408120805460019450909261251191859116613689565b82546fffffffffffffffffffffffffffffffff9182166101009390930a9283029190920219909116179055506040805180820182526001600160a01b03808716825267ffffffffffffffff42811660208085019182526000898152600390915294852093518454915190921674010000000000000000000000000000000000000000027fffffffff0000000000000000000000000000000000000000000000000000000090911691909216171790556125cb8460016136bd565b6000818152600360205260409020549091506001600160a01b0316612686576125f5816000541190565b156126865760408051808201825284516001600160a01b03908116825260208087015167ffffffffffffffff908116828501908152600087815260039093529490912092518354945190911674010000000000000000000000000000000000000000027fffffffff000000000000000000000000000000000000000000000000000000009094169116179190911790555b83856001600160a01b0316876001600160a01b03167fddf252ad1be2c89b69c2b068fc378daa952ba7f163c4a11628f55a4df523b3ef60405160405180910390a45b505050505050565b60408051808201909152600080825260208201526126ef826000541190565b6127615760405162461bcd60e51b815260206004820152602a60248201527f455243373231413a206f776e657220717565727920666f72206e6f6e6578697360448201527f74656e7420746f6b656e00000000000000000000000000000000000000000000606482015260840161095f565b60007f000000000000000000000000000000000000000000000000000000000000000083106127c2576127b47f000000000000000000000000000000000000000000000000000000000000000084613757565b6127bf9060016136bd565b90505b825b81811061283d576000818152600360209081526040918290208251808401909352546001600160a01b0381168084527401000000000000000000000000000000000000000090910467ffffffffffffffff16918301919091521561282a57949350505050565b50806128358161379a565b9150506127c4565b5060405162461bcd60e51b815260206004820152602f60248201527f455243373231413a20756e61626c6520746f2064657465726d696e652074686560448201527f206f776e6572206f6620746f6b656e0000000000000000000000000000000000606482015260840161095f565b600880546001600160a01b038381167fffffffffffffffffffffffff0000000000000000000000000000000000000000831681179093556040519116919082907f8be0079c531659141344cd1fd0a4f28419497f9722a3daafe3b4186f6b6457e090600090a35050565b6114fc828260405180602001604052806000815250612da0565b60006001600160a01b0382166129ae5760405162461bcd60e51b815260206004820152603160248201527f455243373231413a206e756d626572206d696e74656420717565727920666f7260448201527f20746865207a65726f2061646472657373000000000000000000000000000000606482015260840161095f565b506001600160a01b031660009081526004602052604090205470010000000000000000000000000000000090046fffffffffffffffffffffffffffffffff1690565b6000806000600c54600a5442612a069190613757565b612a1091906136d5565b600d54612a1d91906136e9565b9050601054600f54612a2f9190613757565b8110612a3f576010549150612035565b80600f54612a4d9190613757565b9392505050565b60006001600160a01b0384163b15612c14576040517f150b7a020000000000000000000000000000000000000000000000000000000081526001600160a01b0385169063150b7a0290612ab190339089908890889060040161363a565b602060405180830381600087803b158015612acb57600080fd5b505af1925050508015612b19575060408051601f3d9081017fffffffffffffffffffffffffffffffffffffffffffffffffffffffffffffffe0168201909252612b1691810190613420565b60015b612bc9573d808015612b47576040519150601f19603f3d011682016040523d82523d6000602084013e612b4c565b606091505b508051612bc15760405162461bcd60e51b815260206004820152603360248201527f455243373231413a207472616e7366657220746f206e6f6e204552433732315260448201527f6563656976657220696d706c656d656e74657200000000000000000000000000606482015260840161095f565b805181602001fd5b7fffffffff00000000000000000000000000000000000000000000000000000000167f150b7a0200000000000000000000000000000000000000000000000000000000149050612c18565b5060015b949350505050565b606081612c6057505060408051808201909152600181527f3000000000000000000000000000000000000000000000000000000000000000602082015290565b8160005b8115612c8a5780612c748161381d565b9150612c839050600a836136d5565b9150612c64565b60008167ffffffffffffffff811115612ccc577f4e487b7100000000000000000000000000000000000000000000000000000000600052604160045260246000fd5b6040519080825280601f01601f191660200182016040528015612cf6576020820181803683370190505b5090505b8415612c1857612d0b600183613757565b9150612d18600a86613856565b612d239060306136bd565b60f81b818381518110612d5f577f4e487b7100000000000000000000000000000000000000000000000000000000600052603260045260246000fd5b60200101907effffffffffffffffffffffffffffffffffffffffffffffffffffffffffffff1916908160001a905350612d99600a866136d5565b9450612cfa565b6000546001600160a01b038416612e1f5760405162461bcd60e51b815260206004820152602160248201527f455243373231413a206d696e7420746f20746865207a65726f2061646472657360448201527f7300000000000000000000000000000000000000000000000000000000000000606482015260840161095f565b612e2a816000541190565b15612e775760405162461bcd60e51b815260206004820152601d60248201527f455243373231413a20746f6b656e20616c7265616479206d696e746564000000604482015260640161095f565b7f0000000000000000000000000000000000000000000000000000000000000000831115612f0d5760405162461bcd60e51b815260206004820152602260248201527f455243373231413a207175616e7469747920746f206d696e7420746f6f20686960448201527f6768000000000000000000000000000000000000000000000000000000000000606482015260840161095f565b6001600160a01b0384166000908152600460209081526040918290208251808401845290546fffffffffffffffffffffffffffffffff80821683527001000000000000000000000000000000009091041691810191909152815180830190925280519091908190612f7f908790613689565b6fffffffffffffffffffffffffffffffff168152602001858360200151612fa69190613689565b6fffffffffffffffffffffffffffffffff9081169091526001600160a01b03808816600081815260046020908152604080832087519783015187167001000000000000000000000000000000000297909616969096179094558451808601865291825267ffffffffffffffff428116838601908152888352600390955294812091518254945190951674010000000000000000000000000000000000000000027fffffffff0000000000000000000000000000000000000000000000000000000090941694909216939093179190911790915582905b8581101561315b5760405182906001600160a01b038916906000907fddf252ad1be2c89b69c2b068fc378daa952ba7f163c4a11628f55a4df523b3ef908290a46130c96000888488612a54565b61313b5760405162461bcd60e51b815260206004820152603360248201527f455243373231413a207472616e7366657220746f206e6f6e204552433732315260448201527f6563656976657220696d706c656d656e74657200000000000000000000000000606482015260840161095f565b816131458161381d565b92505080806131539061381d565b91505061307c565b5060008190556126c8565b828054613172906137cf565b90600052602060002090601f01602090048101928261319457600085556131da565b82601f106131ad57805160ff19168380011785556131da565b828001600101855582156131da579182015b828111156131da5782518255916020019190600101906131bf565b506113dc9291505b808211156113dc57600081556001016131e2565b600067ffffffffffffffff80841115613211576132116138c8565b604051601f85017fffffffffffffffffffffffffffffffffffffffffffffffffffffffffffffffe0908116603f01168101908282118183101715613257576132576138c8565b8160405280935085815286868601111561327057600080fd5b858560208301376000602087830101525050509392505050565b80356001600160a01b03811681146120cd57600080fd5b6000602082840312156132b2578081fd5b612a4d8261328a565b600080604083850312156132cd578081fd5b6132d68361328a565b91506132e46020840161328a565b90509250929050565b600080600060608486031215613301578081fd5b61330a8461328a565b92506133186020850161328a565b9150604084013590509250925092565b6000806000806080858703121561333d578081fd5b6133468561328a565b93506133546020860161328a565b925060408501359150606085013567ffffffffffffffff811115613376578182fd5b8501601f81018713613386578182fd5b613395878235602084016131f6565b91505092959194509250565b600080604083850312156133b3578182fd5b6133bc8361328a565b9150602083013580151581146133d0578182fd5b809150509250929050565b600080604083850312156133ed578182fd5b6133f68361328a565b946020939093013593505050565b600060208284031215613415578081fd5b8135612a4d816138f7565b600060208284031215613431578081fd5b8151612a4d816138f7565b60006020828403121561344d578081fd5b813567ffffffffffffffff811115613463578182fd5b8201601f81018413613473578182fd5b612c18848235602084016131f6565b600060208284031215613493578081fd5b5035919050565b600080600080608085870312156134af578384fd5b5050823594602084013594506040840135936060013592509050565b600081518084526134e381602086016020860161376e565b601f017fffffffffffffffffffffffffffffffffffffffffffffffffffffffffffffffe0169290920160200192915050565b6000815161352781856020860161376e565b9290920192915050565b600080845482600182811c91508083168061354d57607f831692505b6020808410821415613586577f4e487b710000000000000000000000000000000000000000000000000000000087526022600452602487fd5b81801561359a57600181146135c9576135f5565b7fffffffffffffffffffffffffffffffffffffffffffffffffffffffffffffff008616895284890196506135f5565b60008b815260209020885b868110156135ed5781548b8201529085019083016135d4565b505084890196505b5050505050506136316136088286613515565b7f2e6a736f6e000000000000000000000000000000000000000000000000000000815260050190565b95945050505050565b60006001600160a01b0380871683528086166020840152508360408301526080606083015261366c60808301846134cb565b9695505050505050565b602081526000612a4d60208301846134cb565b60006fffffffffffffffffffffffffffffffff8083168185168083038211156136b4576136b461386a565b01949350505050565b600082198211156136d0576136d061386a565b500190565b6000826136e4576136e4613899565b500490565b6000817fffffffffffffffffffffffffffffffffffffffffffffffffffffffffffffffff04831182151516156137215761372161386a565b500290565b60006fffffffffffffffffffffffffffffffff8381169083168181101561374f5761374f61386a565b039392505050565b6000828210156137695761376961386a565b500390565b60005b83811015613789578181015183820152602001613771565b83811115611e505750506000910152565b6000816137a9576137a961386a565b507fffffffffffffffffffffffffffffffffffffffffffffffffffffffffffffffff0190565b600181811c908216806137e357607f821691505b60208210811415612035577f4e487b7100000000000000000000000000000000000000000000000000000000600052602260045260246000fd5b60007fffffffffffffffffffffffffffffffffffffffffffffffffffffffffffffffff82141561384f5761384f61386a565b5060010190565b60008261386557613865613899565b500690565b7f4e487b7100000000000000000000000000000000000000000000000000000000600052601160045260246000fd5b7f4e487b7100000000000000000000000000000000000000000000000000000000600052601260045260246000fd5b7f4e487b7100000000000000000000000000000000000000000000000000000000600052604160045260246000fd5b7fffffffff000000000000000000000000000000000000000000000000000000008116811461134657600080fdfea26469706673582212205576a3de7e71e92c08d194e50709915c5dcd0ae97bbcfce04aafe189ac39192c64736f6c63430008040033",
  "linkReferences": {},
  "deployedLinkReferences": {}
}