{
  "_format": "hh-sol-artifact-1",
  "contractName": "BabyBoss",
  "sourceName": "contracts/BabyBoss.sol",
  "abi": [
    {
      "inputs": [
        {
          "internalType": "address",
          "name": "_withdrawalAddress",
          "type": "address"
        },
        {
          "internalType": "uint256",
          "name": "_batchSize",
          "type": "uint256"
        }
      ],
      "stateMutability": "nonpayable",
      "type": "constructor"
    },
    {
      "anonymous": false,
      "inputs": [
        {
          "indexed": true,
          "internalType": "address",
          "name": "owner",
          "type": "address"
        },
        {
          "indexed": true,
          "internalType": "address",
          "name": "approved",
          "type": "address"
        },
        {
          "indexed": true,
          "internalType": "uint256",
          "name": "tokenId",
          "type": "uint256"
        }
      ],
      "name": "Approval",
      "type": "event"
    },
    {
      "anonymous": false,
      "inputs": [
        {
          "indexed": true,
          "internalType": "address",
          "name": "owner",
          "type": "address"
        },
        {
          "indexed": true,
          "internalType": "address",
          "name": "operator",
          "type": "address"
        },
        {
          "indexed": false,
          "internalType": "bool",
          "name": "approved",
          "type": "bool"
        }
      ],
      "name": "ApprovalForAll",
      "type": "event"
    },
    {
      "anonymous": false,
      "inputs": [
        {
          "indexed": true,
          "internalType": "address",
          "name": "previousOwner",
          "type": "address"
        },
        {
          "indexed": true,
          "internalType": "address",
          "name": "newOwner",
          "type": "address"
        }
      ],
      "name": "OwnershipTransferred",
      "type": "event"
    },
    {
      "anonymous": false,
      "inputs": [
        {
          "indexed": true,
          "internalType": "address",
          "name": "from",
          "type": "address"
        },
        {
          "indexed": true,
          "internalType": "address",
          "name": "to",
          "type": "address"
        },
        {
          "indexed": true,
          "internalType": "uint256",
          "name": "tokenId",
          "type": "uint256"
        }
      ],
      "name": "Transfer",
      "type": "event"
    },
    {
      "inputs": [
        {
          "internalType": "address",
          "name": "_user",
          "type": "address"
        },
        {
          "internalType": "uint256",
          "name": "_quantity",
          "type": "uint256"
        }
      ],
      "name": "airdrop",
      "outputs": [],
      "stateMutability": "nonpayable",
      "type": "function"
    },
    {
      "inputs": [
        {
          "internalType": "address[]",
          "name": "users",
          "type": "address[]"
        },
        {
          "internalType": "uint256",
          "name": "quantity",
          "type": "uint256"
        }
      ],
      "name": "airdropBatch",
      "outputs": [],
      "stateMutability": "nonpayable",
      "type": "function"
    },
    {
      "inputs": [
        {
          "internalType": "address",
          "name": "to",
          "type": "address"
        },
        {
          "internalType": "uint256",
          "name": "tokenId",
          "type": "uint256"
        }
      ],
      "name": "approve",
      "outputs": [],
      "stateMutability": "nonpayable",
      "type": "function"
    },
    {
      "inputs": [
        {
          "internalType": "address",
          "name": "owner",
          "type": "address"
        }
      ],
      "name": "balanceOf",
      "outputs": [
        {
          "internalType": "uint256",
          "name": "",
          "type": "uint256"
        }
      ],
      "stateMutability": "view",
      "type": "function"
    },
    {
      "inputs": [],
      "name": "baseURI",
      "outputs": [
        {
          "internalType": "string",
          "name": "",
          "type": "string"
        }
      ],
      "stateMutability": "view",
      "type": "function"
    },
    {
      "inputs": [],
      "name": "collabMaxId",
      "outputs": [
        {
          "internalType": "uint256",
          "name": "",
          "type": "uint256"
        }
      ],
      "stateMutability": "view",
      "type": "function"
    },
    {
      "inputs": [],
      "name": "collabURI",
      "outputs": [
        {
          "internalType": "string",
          "name": "",
          "type": "string"
        }
      ],
      "stateMutability": "view",
      "type": "function"
    },
    {
      "inputs": [
        {
          "internalType": "bytes",
          "name": "_signature",
          "type": "bytes"
        },
        {
          "internalType": "uint256",
          "name": "quantity",
          "type": "uint256"
        },
        {
          "internalType": "uint256",
          "name": "limit",
          "type": "uint256"
        }
      ],
      "name": "genesisMint",
      "outputs": [],
      "stateMutability": "payable",
      "type": "function"
    },
    {
      "inputs": [
        {
          "internalType": "uint256",
          "name": "tokenId",
          "type": "uint256"
        }
      ],
      "name": "getApproved",
      "outputs": [
        {
          "internalType": "address",
          "name": "",
          "type": "address"
        }
      ],
      "stateMutability": "view",
      "type": "function"
    },
    {
      "inputs": [],
      "name": "getSignerAddress",
      "outputs": [
        {
          "internalType": "address",
          "name": "",
          "type": "address"
        }
      ],
      "stateMutability": "view",
      "type": "function"
    },
    {
      "inputs": [
        {
          "internalType": "address",
          "name": "owner",
          "type": "address"
        },
        {
          "internalType": "address",
          "name": "operator",
          "type": "address"
        }
      ],
      "name": "isApprovedForAll",
      "outputs": [
        {
          "internalType": "bool",
          "name": "",
          "type": "bool"
        }
      ],
      "stateMutability": "view",
      "type": "function"
    },
    {
      "inputs": [
        {
          "internalType": "address",
          "name": "_user",
          "type": "address"
        }
      ],
      "name": "isTeam",
      "outputs": [
        {
          "internalType": "bool",
          "name": "",
          "type": "bool"
        }
      ],
      "stateMutability": "view",
      "type": "function"
    },
    {
      "inputs": [],
      "name": "maxMint",
      "outputs": [
        {
          "internalType": "uint256",
          "name": "",
          "type": "uint256"
        }
      ],
      "stateMutability": "view",
      "type": "function"
    },
    {
      "inputs": [],
      "name": "maxSupply",
      "outputs": [
        {
          "internalType": "uint256",
          "name": "",
          "type": "uint256"
        }
      ],
      "stateMutability": "view",
      "type": "function"
    },
    {
      "inputs": [
        {
          "internalType": "uint256",
          "name": "quantity",
          "type": "uint256"
        }
      ],
      "name": "mint",
      "outputs": [],
      "stateMutability": "payable",
      "type": "function"
    },
    {
      "inputs": [],
      "name": "name",
      "outputs": [
        {
          "internalType": "string",
          "name": "",
          "type": "string"
        }
      ],
      "stateMutability": "view",
      "type": "function"
    },
    {
      "inputs": [],
      "name": "nextOwnerToExplicitlySet",
      "outputs": [
        {
          "internalType": "uint256",
          "name": "",
          "type": "uint256"
        }
      ],
      "stateMutability": "view",
      "type": "function"
    },
    {
      "inputs": [],
      "name": "owner",
      "outputs": [
        {
          "internalType": "address",
          "name": "",
          "type": "address"
        }
      ],
      "stateMutability": "view",
      "type": "function"
    },
    {
      "inputs": [
        {
          "internalType": "uint256",
          "name": "tokenId",
          "type": "uint256"
        }
      ],
      "name": "ownerOf",
      "outputs": [
        {
          "internalType": "address",
          "name": "",
          "type": "address"
        }
      ],
      "stateMutability": "view",
      "type": "function"
    },
    {
      "inputs": [],
      "name": "priceGenesis",
      "outputs": [
        {
          "internalType": "uint256",
          "name": "",
          "type": "uint256"
        }
      ],
      "stateMutability": "view",
      "type": "function"
    },
    {
      "inputs": [],
      "name": "pricePS",
      "outputs": [
        {
          "internalType": "uint256",
          "name": "",
          "type": "uint256"
        }
      ],
      "stateMutability": "view",
      "type": "function"
    },
    {
      "inputs": [],
      "name": "priceWL",
      "outputs": [
        {
          "internalType": "uint256",
          "name": "",
          "type": "uint256"
        }
      ],
      "stateMutability": "view",
      "type": "function"
    },
    {
      "inputs": [
        {
          "internalType": "contract IERC20",
          "name": "_token",
          "type": "address"
        }
      ],
      "name": "recoverToken",
      "outputs": [],
      "stateMutability": "nonpayable",
      "type": "function"
    },
    {
      "inputs": [],
      "name": "renounceOwnership",
      "outputs": [],
      "stateMutability": "nonpayable",
      "type": "function"
    },
    {
      "inputs": [],
      "name": "reserveMinted",
      "outputs": [
        {
          "internalType": "uint256",
          "name": "",
          "type": "uint256"
        }
      ],
      "stateMutability": "view",
      "type": "function"
    },
    {
      "inputs": [],
      "name": "reserved",
      "outputs": [
        {
          "internalType": "uint256",
          "name": "",
          "type": "uint256"
        }
      ],
      "stateMutability": "view",
      "type": "function"
    },
    {
      "inputs": [],
      "name": "revealTime",
      "outputs": [
        {
          "internalType": "uint256",
          "name": "",
          "type": "uint256"
        }
      ],
      "stateMutability": "view",
      "type": "function"
    },
    {
      "inputs": [
        {
          "internalType": "address",
          "name": "from",
          "type": "address"
        },
        {
          "internalType": "address",
          "name": "to",
          "type": "address"
        },
        {
          "internalType": "uint256",
          "name": "tokenId",
          "type": "uint256"
        }
      ],
      "name": "safeTransferFrom",
      "outputs": [],
      "stateMutability": "nonpayable",
      "type": "function"
    },
    {
      "inputs": [
        {
          "internalType": "address",
          "name": "from",
          "type": "address"
        },
        {
          "internalType": "address",
          "name": "to",
          "type": "address"
        },
        {
          "internalType": "uint256",
          "name": "tokenId",
          "type": "uint256"
        },
        {
          "internalType": "bytes",
          "name": "_data",
          "type": "bytes"
        }
      ],
      "name": "safeTransferFrom",
      "outputs": [],
      "stateMutability": "nonpayable",
      "type": "function"
    },
    {
      "inputs": [],
      "name": "saleState",
      "outputs": [
        {
          "internalType": "enum BabyBoss.Period",
          "name": "",
          "type": "uint8"
        }
      ],
      "stateMutability": "view",
      "type": "function"
    },
    {
      "inputs": [
        {
          "internalType": "address",
          "name": "operator",
          "type": "address"
        },
        {
          "internalType": "bool",
          "name": "approved",
          "type": "bool"
        }
      ],
      "name": "setApprovalForAll",
      "outputs": [],
      "stateMutability": "nonpayable",
      "type": "function"
    },
    {
      "inputs": [
        {
          "internalType": "string",
          "name": "_baseURI",
          "type": "string"
        }
      ],
      "name": "setBaseURI",
      "outputs": [],
      "stateMutability": "nonpayable",
      "type": "function"
    },
    {
      "inputs": [
        {
          "internalType": "uint256",
          "name": "_id",
          "type": "uint256"
        }
      ],
      "name": "setCollabMaxId",
      "outputs": [],
      "stateMutability": "nonpayable",
      "type": "function"
    },
    {
      "inputs": [
        {
          "internalType": "string",
          "name": "_uri",
          "type": "string"
        }
      ],
      "name": "setCollabURI",
      "outputs": [],
      "stateMutability": "nonpayable",
      "type": "function"
    },
    {
      "inputs": [
        {
          "internalType": "uint256",
          "name": "_amount",
          "type": "uint256"
        }
      ],
      "name": "setMaxMint",
      "outputs": [],
      "stateMutability": "nonpayable",
      "type": "function"
    },
    {
      "inputs": [
        {
          "internalType": "uint256",
          "name": "_price",
          "type": "uint256"
        }
      ],
      "name": "setPriceGenesis",
      "outputs": [],
      "stateMutability": "nonpayable",
      "type": "function"
    },
    {
      "inputs": [
        {
          "internalType": "uint256",
          "name": "_price",
          "type": "uint256"
        }
      ],
      "name": "setPricePS",
      "outputs": [],
      "stateMutability": "nonpayable",
      "type": "function"
    },
    {
      "inputs": [
        {
          "internalType": "uint256",
          "name": "_price",
          "type": "uint256"
        }
      ],
      "name": "setPriceWL",
      "outputs": [],
      "stateMutability": "nonpayable",
      "type": "function"
    },
    {
      "inputs": [
        {
          "internalType": "uint256",
          "name": "_revealTime",
          "type": "uint256"
        }
      ],
      "name": "setRevealTime",
      "outputs": [],
      "stateMutability": "nonpayable",
      "type": "function"
    },
    {
      "inputs": [
        {
          "internalType": "uint256",
          "name": "_state",
          "type": "uint256"
        }
      ],
      "name": "setSaleState",
      "outputs": [],
      "stateMutability": "nonpayable",
      "type": "function"
    },
    {
      "inputs": [
        {
          "internalType": "address",
          "name": "_signer",
          "type": "address"
        }
      ],
      "name": "setSignerAddress",
      "outputs": [],
      "stateMutability": "nonpayable",
      "type": "function"
    },
    {
      "inputs": [
        {
          "internalType": "address",
          "name": "_user",
          "type": "address"
        },
        {
          "internalType": "bool",
          "name": "_state",
          "type": "bool"
        }
      ],
      "name": "setTeam",
      "outputs": [],
      "stateMutability": "nonpayable",
      "type": "function"
    },
    {
      "inputs": [
        {
          "internalType": "string",
          "name": "_uri",
          "type": "string"
        }
      ],
      "name": "setUnrevealedURI",
      "outputs": [],
      "stateMutability": "nonpayable",
      "type": "function"
    },
    {
      "inputs": [
        {
          "internalType": "address",
          "name": "_withdrawal",
          "type": "address"
        }
      ],
      "name": "setWithdrawalAddress",
      "outputs": [],
      "stateMutability": "nonpayable",
      "type": "function"
    },
    {
      "inputs": [
        {
          "internalType": "bytes4",
          "name": "interfaceId",
          "type": "bytes4"
        }
      ],
      "name": "supportsInterface",
      "outputs": [
        {
          "internalType": "bool",
          "name": "",
          "type": "bool"
        }
      ],
      "stateMutability": "view",
      "type": "function"
    },
    {
      "inputs": [],
      "name": "symbol",
      "outputs": [
        {
          "internalType": "string",
          "name": "",
          "type": "string"
        }
      ],
      "stateMutability": "view",
      "type": "function"
    },
    {
      "inputs": [
        {
          "internalType": "uint256",
          "name": "index",
          "type": "uint256"
        }
      ],
      "name": "tokenByIndex",
      "outputs": [
        {
          "internalType": "uint256",
          "name": "",
          "type": "uint256"
        }
      ],
      "stateMutability": "view",
      "type": "function"
    },
    {
      "inputs": [
        {
          "internalType": "address",
          "name": "owner",
          "type": "address"
        },
        {
          "internalType": "uint256",
          "name": "index",
          "type": "uint256"
        }
      ],
      "name": "tokenOfOwnerByIndex",
      "outputs": [
        {
          "internalType": "uint256",
          "name": "",
          "type": "uint256"
        }
      ],
      "stateMutability": "view",
      "type": "function"
    },
    {
      "inputs": [
        {
          "internalType": "uint256",
          "name": "tokenId",
          "type": "uint256"
        }
      ],
      "name": "tokenURI",
      "outputs": [
        {
          "internalType": "string",
          "name": "",
          "type": "string"
        }
      ],
      "stateMutability": "view",
      "type": "function"
    },
    {
      "inputs": [],
      "name": "totalSupply",
      "outputs": [
        {
          "internalType": "uint256",
          "name": "",
          "type": "uint256"
        }
      ],
      "stateMutability": "view",
      "type": "function"
    },
    {
      "inputs": [
        {
          "internalType": "address",
          "name": "from",
          "type": "address"
        },
        {
          "internalType": "address",
          "name": "to",
          "type": "address"
        },
        {
          "internalType": "uint256",
          "name": "tokenId",
          "type": "uint256"
        }
      ],
      "name": "transferFrom",
      "outputs": [],
      "stateMutability": "nonpayable",
      "type": "function"
    },
    {
      "inputs": [
        {
          "internalType": "address",
          "name": "newOwner",
          "type": "address"
        }
      ],
      "name": "transferOwnership",
      "outputs": [],
      "stateMutability": "nonpayable",
      "type": "function"
    },
    {
      "inputs": [],
      "name": "unrevealedURI",
      "outputs": [
        {
          "internalType": "string",
          "name": "",
          "type": "string"
        }
      ],
      "stateMutability": "view",
      "type": "function"
    },
    {
      "inputs": [
        {
          "internalType": "bytes",
          "name": "_signature",
          "type": "bytes"
        },
        {
          "internalType": "uint256",
          "name": "quantity",
          "type": "uint256"
        },
        {
          "internalType": "uint256",
          "name": "limit",
          "type": "uint256"
        }
      ],
      "name": "whitelistMint",
      "outputs": [],
      "stateMutability": "payable",
      "type": "function"
    },
    {
      "inputs": [],
      "name": "withdraw",
      "outputs": [],
      "stateMutability": "nonpayable",
      "type": "function"
    },
    {
      "inputs": [],
      "name": "withdrawalAddress",
      "outputs": [
        {
          "internalType": "address",
          "name": "",
          "type": "address"
        }
      ],
      "stateMutability": "view",
      "type": "function"
    }
  ],
  "bytecode": "0x60a06040526000808055600755600a8054610100600160a81b0319167466be19ba8b9e04b9afa440fa6df7138e67233b4c00179055610f9f600b90815561012c600c556002600d5566c3663566a58000600e5566ea7aa67b2d0000600f55670138a388a43c00006010556011553480156200007957600080fd5b5060405162004c3638038062004c368339810160408190526200009c91620002c1565b604051806040016040528060098152602001684261627920426f737360b81b815250604051806040016040528060068152602001652442424f535360d01b8152508260008111620001435760405162461bcd60e51b815260206004820152602760248201527f455243373231413a206d61782062617463682073697a65206d757374206265206044820152666e6f6e7a65726f60c81b606482015260840160405180910390fd5b8251620001589060019060208601906200021b565b5081516200016e9060029060208501906200021b565b506080525062000180905033620001c9565b5060016009819055601780546001600160a01b0319166001600160a01b039390931692909217909155336000908152601b60205260409020805460ff1916909117905562000338565b600880546001600160a01b038381166001600160a01b0319831681179093556040519116919082907f8be0079c531659141344cd1fd0a4f28419497f9722a3daafe3b4186f6b6457e090600090a35050565b8280546200022990620002fb565b90600052602060002090601f0160209004810192826200024d576000855562000298565b82601f106200026857805160ff191683800117855562000298565b8280016001018555821562000298579182015b82811115620002985782518255916020019190600101906200027b565b50620002a6929150620002aa565b5090565b5b80821115620002a65760008155600101620002ab565b60008060408385031215620002d4578182fd5b82516001600160a01b0381168114620002eb578283fd5b6020939093015192949293505050565b600181811c908216806200031057607f821691505b602082108114156200033257634e487b7160e01b600052602260045260246000fd5b50919050565b6080516148d462000362600039600081816133740152818161339e015261398b01526148d46000f3fe60806040526004361061036b5760003560e01c806370a08231116101c6578063b655af4f116100f7578063d73ae0a111610095578063f2bcd0221161006f578063f2bcd02214610980578063f2fde38b146109a0578063fe2c7fee146109c0578063fe60d12c146109e057600080fd5b8063d73ae0a11461090e578063dfc5f93014610921578063e985e9c51461093757600080fd5b8063c1e28507116100d1578063c1e28507146108a2578063c87b56dd146108c2578063d5abeb01146108e2578063d7224ba0146108f857600080fd5b8063b655af4f1461084c578063b88d4fde1461086c578063ba829d711461088c57600080fd5b80638ba4cc3c116101645780639be65a601161013e5780639be65a60146107d9578063a0712d68146107f9578063a22cb4651461080c578063a5c819561461082c57600080fd5b80638ba4cc3c146107865780638da5cb5b146107a657806395d89b41146107c457600080fd5b806379b2f57f116101a057806379b2f57f146107275780637ea685c31461073d5780637fe9bdca1461075057806381d8488f1461076657600080fd5b806370a08231146106dc578063715018a6146106fc5780637501f7411461071157600080fd5b80633ccfd60b116102a05780635ac0605d1161023e578063671c3e4f11610218578063671c3e4f1461067d5780636c0360eb1461069d5780636eddba49146106b25780637035bf18146106c757600080fd5b80635ac0605d14610616578063603f4d52146106365780636352211e1461065d57600080fd5b80634c81433f1161027a5780634c81433f146105a05780634f6ccce7146105b6578063547520fe146105d657806355f804b3146105f657600080fd5b80633ccfd60b1461054b57806342842e0e146105605780634926f4621461058057600080fd5b806318160ddd1161030d57806321b8092e116102e757806321b8092e146104cb57806323b872dd146104eb578063248519141461050b5780632f745c591461052b57600080fd5b806318160ddd146104815780631a296e02146104a05780631c0e2a11146104b557600080fd5b8063081812fc11610349578063081812fc146103e9578063084c408814610421578063092545ce14610441578063095ea7b31461046157600080fd5b806301ffc9a714610370578063046dc166146103a557806306fdde03146103c7575b600080fd5b34801561037c57600080fd5b5061039061038b366004614366565b6109f6565b60405190151581526020015b60405180910390f35b3480156103b157600080fd5b506103c56103c0366004614164565b610b27565b005b3480156103d357600080fd5b506103dc610bc5565b60405161039c919061462a565b3480156103f557600080fd5b5061040961040436600461445e565b610c57565b6040516001600160a01b03909116815260200161039c565b34801561042d57600080fd5b506103c561043c36600461445e565b610cf2565b34801561044d57600080fd5b506103c561045c36600461427c565b610dbc565b34801561046d57600080fd5b506103c561047c3660046142a9565b610ece565b34801561048d57600080fd5b506000545b60405190815260200161039c565b3480156104ac57600080fd5b50610409611001565b3480156104c157600080fd5b5061049260105481565b3480156104d757600080fd5b506103c56104e6366004614164565b611073565b3480156104f757600080fd5b506103c56105063660046141bf565b611107565b34801561051757600080fd5b50610390610526366004614164565b611112565b34801561053757600080fd5b506104926105463660046142a9565b61118e565b34801561055757600080fd5b506103c5611337565b34801561056c57600080fd5b506103c561057b3660046141bf565b6113f4565b34801561058c57600080fd5b506103c561059b36600461445e565b61140f565b3480156105ac57600080fd5b5061049260135481565b3480156105c257600080fd5b506104926105d136600461445e565b61146e565b3480156105e257600080fd5b506103c56105f136600461445e565b6114ea565b34801561060257600080fd5b506103c5610611366004614418565b611599565b34801561062257600080fd5b506103c561063136600461445e565b61160a565b34801561064257600080fd5b50600a546106509060ff1681565b60405161039c9190614602565b34801561066957600080fd5b5061040961067836600461445e565b611669565b34801561068957600080fd5b506103c56106983660046142d4565b61167b565b3480156106a957600080fd5b506103dc611891565b3480156106be57600080fd5b506103dc61191f565b3480156106d357600080fd5b506103dc61192c565b3480156106e857600080fd5b506104926106f7366004614164565b611939565b34801561070857600080fd5b506103c56119e5565b34801561071d57600080fd5b50610492600d5481565b34801561073357600080fd5b50610492600e5481565b6103c561074b36600461439e565b611a4b565b34801561075c57600080fd5b5061049260115481565b34801561077257600080fd5b506103c561078136600461445e565b611e03565b34801561079257600080fd5b506103c56107a13660046142a9565b611e62565b3480156107b257600080fd5b506008546001600160a01b0316610409565b3480156107d057600080fd5b506103dc61200a565b3480156107e557600080fd5b506103c56107f4366004614164565b612019565b6103c561080736600461445e565b612212565b34801561081857600080fd5b506103c561082736600461427c565b6124a8565b34801561083857600080fd5b506103c5610847366004614418565b61258b565b34801561085857600080fd5b506103c561086736600461445e565b6125f8565b34801561087857600080fd5b506103c56108873660046141ff565b612657565b34801561089857600080fd5b5061049260125481565b3480156108ae57600080fd5b506103c56108bd36600461445e565b6126e0565b3480156108ce57600080fd5b506103dc6108dd36600461445e565b61273f565b3480156108ee57600080fd5b50610492600b5481565b34801561090457600080fd5b5061049260075481565b6103c561091c36600461439e565b612967565b34801561092d57600080fd5b50610492600f5481565b34801561094357600080fd5b50610390610952366004614187565b6001600160a01b03918216600090815260066020908152604080832093909416825291909152205460ff1690565b34801561098c57600080fd5b50601754610409906001600160a01b031681565b3480156109ac57600080fd5b506103c56109bb366004614164565b612cf4565b3480156109cc57600080fd5b506103c56109db366004614418565b612dd3565b3480156109ec57600080fd5b50610492600c5481565b60007fffffffff0000000000000000000000000000000000000000000000000000000082167f80ac58cd000000000000000000000000000000000000000000000000000000001480610a8957507fffffffff0000000000000000000000000000000000000000000000000000000082167f5b5e139f00000000000000000000000000000000000000000000000000000000145b80610ad557507fffffffff0000000000000000000000000000000000000000000000000000000082167f780e9d6300000000000000000000000000000000000000000000000000000000145b80610b2157507f01ffc9a7000000000000000000000000000000000000000000000000000000007fffffffff000000000000000000000000000000000000000000000000000000008316145b92915050565b6008546001600160a01b03163314610b865760405162461bcd60e51b815260206004820181905260248201527f4f776e61626c653a2063616c6c6572206973206e6f7420746865206f776e657260448201526064015b60405180910390fd5b600a80546001600160a01b03909216610100027fffffffffffffffffffffff0000000000000000000000000000000000000000ff909216919091179055565b606060018054610bd490614783565b80601f0160208091040260200160405190810160405280929190818152602001828054610c0090614783565b8015610c4d5780601f10610c2257610100808354040283529160200191610c4d565b820191906000526020600020905b815481529060010190602001808311610c3057829003601f168201915b5050505050905090565b6000610c64826000541190565b610cd65760405162461bcd60e51b815260206004820152602d60248201527f455243373231413a20617070726f76656420717565727920666f72206e6f6e6560448201527f78697374656e7420746f6b656e000000000000000000000000000000000000006064820152608401610b7d565b506000908152600560205260409020546001600160a01b031690565b6008546001600160a01b03163314610d4c5760405162461bcd60e51b815260206004820181905260248201527f4f776e61626c653a2063616c6c6572206973206e6f7420746865206f776e65726044820152606401610b7d565b806003811115610d6c57634e487b7160e01b600052602160045260246000fd5b600a80547fffffffffffffffffffffffffffffffffffffffffffffffffffffffffffffff00166001836003811115610db457634e487b7160e01b600052602160045260246000fd5b021790555050565b6008546001600160a01b03163314610e165760405162461bcd60e51b815260206004820181905260248201527f4f776e61626c653a2063616c6c6572206973206e6f7420746865206f776e65726044820152606401610b7d565b6001600160a01b0382166000908152601b602052604090205460ff1615158115151415610e855760405162461bcd60e51b815260206004820152600960248201527f4e4f5f4348414e474500000000000000000000000000000000000000000000006044820152606401610b7d565b6001600160a01b03919091166000908152601b6020526040902080547fffffffffffffffffffffffffffffffffffffffffffffffffffffffffffffff0016911515919091179055565b6000610ed982611669565b9050806001600160a01b0316836001600160a01b03161415610f635760405162461bcd60e51b815260206004820152602260248201527f455243373231413a20617070726f76616c20746f2063757272656e74206f776e60448201527f65720000000000000000000000000000000000000000000000000000000000006064820152608401610b7d565b336001600160a01b0382161480610f7f5750610f7f8133610952565b610ff15760405162461bcd60e51b815260206004820152603960248201527f455243373231413a20617070726f76652063616c6c6572206973206e6f74206f60448201527f776e6572206e6f7220617070726f76656420666f7220616c6c000000000000006064820152608401610b7d565b610ffc838383612e40565b505050565b6008546000906001600160a01b0316331461105e5760405162461bcd60e51b815260206004820181905260248201527f4f776e61626c653a2063616c6c6572206973206e6f7420746865206f776e65726044820152606401610b7d565b50600a5461010090046001600160a01b031690565b6008546001600160a01b031633146110cd5760405162461bcd60e51b815260206004820181905260248201527f4f776e61626c653a2063616c6c6572206973206e6f7420746865206f776e65726044820152606401610b7d565b601780547fffffffffffffffffffffffff0000000000000000000000000000000000000000166001600160a01b0392909216919091179055565b610ffc838383612eb4565b6008546000906001600160a01b0316331461116f5760405162461bcd60e51b815260206004820181905260248201527f4f776e61626c653a2063616c6c6572206973206e6f7420746865206f776e65726044820152606401610b7d565b506001600160a01b03166000908152601b602052604090205460ff1690565b600061119983611939565b821061120d5760405162461bcd60e51b815260206004820152602260248201527f455243373231413a206f776e657220696e646578206f7574206f6620626f756e60448201527f64730000000000000000000000000000000000000000000000000000000000006064820152608401610b7d565b600080549080805b838110156112c8576000818152600360209081526040918290208251808401909352546001600160a01b0381168084527401000000000000000000000000000000000000000090910467ffffffffffffffff16918301919091521561127957805192505b876001600160a01b0316836001600160a01b031614156112b557868414156112a757509350610b2192505050565b836112b1816147be565b9450505b50806112c0816147be565b915050611215565b5060405162461bcd60e51b815260206004820152602e60248201527f455243373231413a20756e61626c6520746f2067657420746f6b656e206f662060448201527f6f776e657220627920696e6465780000000000000000000000000000000000006064820152608401610b7d565b6008546001600160a01b031633146113915760405162461bcd60e51b815260206004820181905260248201527f4f776e61626c653a2063616c6c6572206973206e6f7420746865206f776e65726044820152606401610b7d565b6017546040516000916001600160a01b03169047908381818185875af1925050503d80600081146113de576040519150601f19603f3d011682016040523d82523d6000602084013e6113e3565b606091505b50509050806113f157600080fd5b50565b610ffc83838360405180602001604052806000815250612657565b6008546001600160a01b031633146114695760405162461bcd60e51b815260206004820181905260248201527f4f776e61626c653a2063616c6c6572206973206e6f7420746865206f776e65726044820152606401610b7d565b601155565b6000805482106114e65760405162461bcd60e51b815260206004820152602360248201527f455243373231413a20676c6f62616c20696e646578206f7574206f6620626f7560448201527f6e647300000000000000000000000000000000000000000000000000000000006064820152608401610b7d565b5090565b6008546001600160a01b031633146115445760405162461bcd60e51b815260206004820181905260248201527f4f776e61626c653a2063616c6c6572206973206e6f7420746865206f776e65726044820152606401610b7d565b600081116115945760405162461bcd60e51b815260206004820152600e60248201527f414d4f554e545f544f4f5f4c4f570000000000000000000000000000000000006044820152606401610b7d565b600d55565b6008546001600160a01b031633146115f35760405162461bcd60e51b815260206004820181905260248201527f4f776e61626c653a2063616c6c6572206973206e6f7420746865206f776e65726044820152606401610b7d565b805161160690601490602084019061405e565b5050565b6008546001600160a01b031633146116645760405162461bcd60e51b815260206004820181905260248201527f4f776e61626c653a2063616c6c6572206973206e6f7420746865206f776e65726044820152606401610b7d565b601055565b6000611674826132df565b5192915050565b3233146116ca5760405162461bcd60e51b815260206004820152601260248201527f43414c4c45525f49535f434f4e545241435400000000000000000000000000006044820152606401610b7d565b336000908152601b602052604090205460ff166117295760405162461bcd60e51b815260206004820152600b60248201527f4e4f545f494e5f5445414d0000000000000000000000000000000000000000006044820152606401610b7d565b611733828261469d565b6000600b54818361174360005490565b61174d9190614671565b6117579190614671565b11156117a55760405162461bcd60e51b815260206004820152601b60248201527f4d41585f535550504c593a20414d4f554e545f544f4f5f4849474800000000006044820152606401610b7d565b600c546117b2848661469d565b6013546117bf9190614671565b111561180d5760405162461bcd60e51b815260206004820152600c60248201527f4f5645525f5245534552564500000000000000000000000000000000000000006044820152606401610b7d565b611817838561469d565b601360008282546118289190614671565b90915550600090505b848110156118895761187786868381811061185c57634e487b7160e01b600052603260045260246000fd5b90506020020160208101906118719190614164565b856134bb565b80611881816147be565b915050611831565b505050505050565b6014805461189e90614783565b80601f01602080910402602001604051908101604052809291908181526020018280546118ca90614783565b80156119175780601f106118ec57610100808354040283529160200191611917565b820191906000526020600020905b8154815290600101906020018083116118fa57829003601f168201915b505050505081565b6016805461189e90614783565b6015805461189e90614783565b60006001600160a01b0382166119b75760405162461bcd60e51b815260206004820152602b60248201527f455243373231413a2062616c616e636520717565727920666f7220746865207a60448201527f65726f20616464726573730000000000000000000000000000000000000000006064820152608401610b7d565b506001600160a01b03166000908152600460205260409020546fffffffffffffffffffffffffffffffff1690565b6008546001600160a01b03163314611a3f5760405162461bcd60e51b815260206004820181905260248201527f4f776e61626c653a2063616c6c6572206973206e6f7420746865206f776e65726044820152606401610b7d565b611a4960006134d5565b565b323314611a9a5760405162461bcd60e51b815260206004820152601260248201527f43414c4c45525f49535f434f4e545241435400000000000000000000000000006044820152606401610b7d565b60026009541415611aed5760405162461bcd60e51b815260206004820152601f60248201527f5265656e7472616e637947756172643a207265656e7472616e742063616c6c006044820152606401610b7d565b6002600955600f548290611b01818361469d565b341015611b505760405162461bcd60e51b815260206004820152601460248201527f50524943453a2056414c55455f544f4f5f4c4f570000000000000000000000006044820152606401610b7d565b600280600a5460ff166003811115611b7857634e487b7160e01b600052602160045260246000fd5b14611bc55760405162461bcd60e51b815260206004820152601060248201527f57524f4e475f53414c455f5354415445000000000000000000000000000000006044820152606401610b7d565b600a548790879060ff1686600030836003811115611bf357634e487b7160e01b600052602160045260246000fd5b604080516001600160a01b0390931660208401528201526060810183905233608082015260a00160408051808303601f190181528282528051602091820120600a54601f890183900483028501830190935287845293506101009091046001600160a01b031691611c8a918890889081908401838280828437600092019190915250611c84925086915061353f9050565b90613592565b6001600160a01b031614611ce05760405162461bcd60e51b815260206004820152601360248201527f494e434f52524543545f5349474e4154555245000000000000000000000000006044820152606401610b7d565b89600c54600b548183611cf260005490565b611cfc9190614671565b611d069190614671565b1115611d545760405162461bcd60e51b815260206004820152601b60248201527f4d41585f535550504c593a20414d4f554e545f544f4f5f4849474800000000006044820152606401610b7d565b336000908152601a60205260409020548b90611d71908e90614671565b1115611dbf5760405162461bcd60e51b815260206004820152601960248201527f4d41585f4d494e543a20414d4f554e545f544f4f5f48494748000000000000006044820152606401610b7d565b336000908152601a6020526040812080548e9290611dde908490614671565b90915550611dee9050338d6134bb565b50506001600955505050505050505050505050565b6008546001600160a01b03163314611e5d5760405162461bcd60e51b815260206004820181905260248201527f4f776e61626c653a2063616c6c6572206973206e6f7420746865206f776e65726044820152606401610b7d565b600f55565b323314611eb15760405162461bcd60e51b815260206004820152601260248201527f43414c4c45525f49535f434f4e545241435400000000000000000000000000006044820152606401610b7d565b336000908152601b602052604090205460ff16611f105760405162461bcd60e51b815260206004820152600b60248201527f4e4f545f494e5f5445414d0000000000000000000000000000000000000000006044820152606401610b7d565b806000600b548183611f2160005490565b611f2b9190614671565b611f359190614671565b1115611f835760405162461bcd60e51b815260206004820152601b60248201527f4d41585f535550504c593a20414d4f554e545f544f4f5f4849474800000000006044820152606401610b7d565b600c5483601354611f949190614671565b1115611fe25760405162461bcd60e51b815260206004820152600c60248201527f4f5645525f5245534552564500000000000000000000000000000000000000006044820152606401610b7d565b8260136000828254611ff49190614671565b90915550612004905084846134bb565b50505050565b606060028054610bd490614783565b6008546001600160a01b031633146120735760405162461bcd60e51b815260206004820181905260248201527f4f776e61626c653a2063616c6c6572206973206e6f7420746865206f776e65726044820152606401610b7d565b6040517f70a082310000000000000000000000000000000000000000000000000000000081523060048201526000906001600160a01b038316906370a082319060240160206040518083038186803b1580156120ce57600080fd5b505afa1580156120e2573d6000803e3d6000fd5b505050506040513d601f19601f820116820180604052508101906121069190614476565b90506000826001600160a01b031663a9059cbb61212b6008546001600160a01b031690565b6040517fffffffff0000000000000000000000000000000000000000000000000000000060e084901b1681526001600160a01b03909116600482015260248101859052604401602060405180830381600087803b15801561218b57600080fd5b505af115801561219f573d6000803e3d6000fd5b505050506040513d601f19601f820116820180604052508101906121c3919061434a565b905080610ffc5760405162461bcd60e51b815260206004820152601e60248201527f546f6b656e20636f756c64206e6f74206265207472616e7366657272656400006044820152606401610b7d565b3233146122615760405162461bcd60e51b815260206004820152601260248201527f43414c4c45525f49535f434f4e545241435400000000000000000000000000006044820152606401610b7d565b600260095414156122b45760405162461bcd60e51b815260206004820152601f60248201527f5265656e7472616e637947756172643a207265656e7472616e742063616c6c006044820152606401610b7d565b600260095560105481906122c8818361469d565b3410156123175760405162461bcd60e51b815260206004820152601460248201527f50524943453a2056414c55455f544f4f5f4c4f570000000000000000000000006044820152606401610b7d565b600380600a5460ff16600381111561233f57634e487b7160e01b600052602160045260246000fd5b1461238c5760405162461bcd60e51b815260206004820152601060248201527f57524f4e475f53414c455f5354415445000000000000000000000000000000006044820152606401610b7d565b83600c54600b54818361239e60005490565b6123a89190614671565b6123b29190614671565b11156124005760405162461bcd60e51b815260206004820152601b60248201527f4d41585f535550504c593a20414d4f554e545f544f4f5f4849474800000000006044820152606401610b7d565b600d543360009081526018602052604090205461241e908890614671565b111561246c5760405162461bcd60e51b815260206004820152601960248201527f4d41585f4d494e543a20414d4f554e545f544f4f5f48494748000000000000006044820152606401610b7d565b336000908152601860205260408120805488929061248b908490614671565b9091555061249b905033876134bb565b5050600160095550505050565b6001600160a01b0382163314156125015760405162461bcd60e51b815260206004820152601a60248201527f455243373231413a20617070726f766520746f2063616c6c65720000000000006044820152606401610b7d565b3360008181526006602090815260408083206001600160a01b0387168085529083529281902080547fffffffffffffffffffffffffffffffffffffffffffffffffffffffffffffff001686151590811790915590519081529192917f17307eab39ab6107e8899845ad3d59bd9653f200f220920489ca2b5937696c31910160405180910390a35050565b6008546001600160a01b031633146125e55760405162461bcd60e51b815260206004820181905260248201527f4f776e61626c653a2063616c6c6572206973206e6f7420746865206f776e65726044820152606401610b7d565b805161160690601690602084019061405e565b6008546001600160a01b031633146126525760405162461bcd60e51b815260206004820181905260248201527f4f776e61626c653a2063616c6c6572206973206e6f7420746865206f776e65726044820152606401610b7d565b600e55565b612662848484612eb4565b61266e848484846135b6565b6120045760405162461bcd60e51b815260206004820152603360248201527f455243373231413a207472616e7366657220746f206e6f6e204552433732315260448201527f6563656976657220696d706c656d656e746572000000000000000000000000006064820152608401610b7d565b6008546001600160a01b0316331461273a5760405162461bcd60e51b815260206004820181905260248201527f4f776e61626c653a2063616c6c6572206973206e6f7420746865206f776e65726044820152606401610b7d565b601255565b606061274c826000541190565b6127be5760405162461bcd60e51b815260206004820152602f60248201527f4552433732314d657461646174613a2055524920717565727920666f72206e6f60448201527f6e6578697374656e7420746f6b656e00000000000000000000000000000000006064820152608401610b7d565b601154821161289e576000601680546127d690614783565b90501161286d57601580546127ea90614783565b80601f016020809104026020016040519081016040528092919081815260200182805461281690614783565b80156128635780601f1061283857610100808354040283529160200191612863565b820191906000526020600020905b81548152906001019060200180831161284657829003601f168201915b5050505050610b21565b601661287883613764565b6040516020016128899291906144d6565b60405160208183030381529060405292915050565b60125442106128d5576000601480546128b690614783565b9050116128ca57601580546127ea90614783565b601461287883613764565b601580546128e290614783565b80601f016020809104026020016040519081016040528092919081815260200182805461290e90614783565b801561295b5780601f106129305761010080835404028352916020019161295b565b820191906000526020600020905b81548152906001019060200180831161293e57829003601f168201915b50505050509050919050565b3233146129b65760405162461bcd60e51b815260206004820152601260248201527f43414c4c45525f49535f434f4e545241435400000000000000000000000000006044820152606401610b7d565b60026009541415612a095760405162461bcd60e51b815260206004820152601f60248201527f5265656e7472616e637947756172643a207265656e7472616e742063616c6c006044820152606401610b7d565b6002600955600e548290612a1d818361469d565b341015612a6c5760405162461bcd60e51b815260206004820152601460248201527f50524943453a2056414c55455f544f4f5f4c4f570000000000000000000000006044820152606401610b7d565b600180600a5460ff166003811115612a9457634e487b7160e01b600052602160045260246000fd5b14612ae15760405162461bcd60e51b815260206004820152601060248201527f57524f4e475f53414c455f5354415445000000000000000000000000000000006044820152606401610b7d565b600a548790879060ff1686600030836003811115612b0f57634e487b7160e01b600052602160045260246000fd5b604080516001600160a01b0390931660208401528201526060810183905233608082015260a00160408051808303601f190181528282528051602091820120600a54601f890183900483028501830190935287845293506101009091046001600160a01b031691612ba0918890889081908401838280828437600092019190915250611c84925086915061353f9050565b6001600160a01b031614612bf65760405162461bcd60e51b815260206004820152601360248201527f494e434f52524543545f5349474e4154555245000000000000000000000000006044820152606401610b7d565b89600c54600b548183612c0860005490565b612c129190614671565b612c1c9190614671565b1115612c6a5760405162461bcd60e51b815260206004820152601b60248201527f4d41585f535550504c593a20414d4f554e545f544f4f5f4849474800000000006044820152606401610b7d565b336000908152601960205260409020548b90612c87908e90614671565b1115612cd55760405162461bcd60e51b815260206004820152601960248201527f4d41585f4d494e543a20414d4f554e545f544f4f5f48494748000000000000006044820152606401610b7d565b33600090815260196020526040812080548e9290611dde908490614671565b6008546001600160a01b03163314612d4e5760405162461bcd60e51b815260206004820181905260248201527f4f776e61626c653a2063616c6c6572206973206e6f7420746865206f776e65726044820152606401610b7d565b6001600160a01b038116612dca5760405162461bcd60e51b815260206004820152602660248201527f4f776e61626c653a206e6577206f776e657220697320746865207a65726f206160448201527f64647265737300000000000000000000000000000000000000000000000000006064820152608401610b7d565b6113f1816134d5565b6008546001600160a01b03163314612e2d5760405162461bcd60e51b815260206004820181905260248201527f4f776e61626c653a2063616c6c6572206973206e6f7420746865206f776e65726044820152606401610b7d565b805161160690601590602084019061405e565b60008281526005602052604080822080547fffffffffffffffffffffffff0000000000000000000000000000000000000000166001600160a01b0387811691821790925591518593918516917f8c5be1e5ebec7d5bd14f71427d1e84f3dd0314c0f7b2291e5b200ac8c7c3b92591a4505050565b6000612ebf826132df565b80519091506000906001600160a01b0316336001600160a01b03161480612ef6575033612eeb84610c57565b6001600160a01b0316145b80612f0857508151612f089033610952565b905080612f7d5760405162461bcd60e51b815260206004820152603260248201527f455243373231413a207472616e736665722063616c6c6572206973206e6f742060448201527f6f776e6572206e6f7220617070726f76656400000000000000000000000000006064820152608401610b7d565b846001600160a01b031682600001516001600160a01b0316146130085760405162461bcd60e51b815260206004820152602660248201527f455243373231413a207472616e736665722066726f6d20696e636f727265637460448201527f206f776e657200000000000000000000000000000000000000000000000000006064820152608401610b7d565b6001600160a01b0384166130845760405162461bcd60e51b815260206004820152602560248201527f455243373231413a207472616e7366657220746f20746865207a65726f20616460448201527f64726573730000000000000000000000000000000000000000000000000000006064820152608401610b7d565b6130946000848460000151612e40565b6001600160a01b03851660009081526004602052604081208054600192906130cf9084906fffffffffffffffffffffffffffffffff166146da565b82546101009290920a6fffffffffffffffffffffffffffffffff8181021990931691831602179091556001600160a01b038616600090815260046020526040812080546001945090926131249185911661463d565b82546fffffffffffffffffffffffffffffffff9182166101009390930a9283029190920219909116179055506040805180820182526001600160a01b03808716825267ffffffffffffffff42811660208085019182526000898152600390915294852093518454915190921674010000000000000000000000000000000000000000027fffffffff0000000000000000000000000000000000000000000000000000000090911691909216171790556131de846001614671565b6000818152600360205260409020549091506001600160a01b031661329957613208816000541190565b156132995760408051808201825284516001600160a01b03908116825260208087015167ffffffffffffffff908116828501908152600087815260039093529490912092518354945190911674010000000000000000000000000000000000000000027fffffffff000000000000000000000000000000000000000000000000000000009094169116179190911790555b83856001600160a01b0316876001600160a01b03167fddf252ad1be2c89b69c2b068fc378daa952ba7f163c4a11628f55a4df523b3ef60405160405180910390a4611889565b60408051808201909152600080825260208201526132fe826000541190565b6133705760405162461bcd60e51b815260206004820152602a60248201527f455243373231413a206f776e657220717565727920666f72206e6f6e6578697360448201527f74656e7420746f6b656e000000000000000000000000000000000000000000006064820152608401610b7d565b60007f000000000000000000000000000000000000000000000000000000000000000083106133d1576133c37f00000000000000000000000000000000000000000000000000000000000000008461470b565b6133ce906001614671565b90505b825b81811061344c576000818152600360209081526040918290208251808401909352546001600160a01b0381168084527401000000000000000000000000000000000000000090910467ffffffffffffffff16918301919091521561343957949350505050565b50806134448161474e565b9150506133d3565b5060405162461bcd60e51b815260206004820152602f60248201527f455243373231413a20756e61626c6520746f2064657465726d696e652074686560448201527f206f776e6572206f6620746f6b656e00000000000000000000000000000000006064820152608401610b7d565b6116068282604051806020016040528060008152506138b2565b600880546001600160a01b038381167fffffffffffffffffffffffff0000000000000000000000000000000000000000831681179093556040519116919082907f8be0079c531659141344cd1fd0a4f28419497f9722a3daafe3b4186f6b6457e090600090a35050565b6040517f19457468657265756d205369676e6564204d6573736167653a0a3332000000006020820152603c8101829052600090605c01604051602081830303815290604052805190602001209050919050565b60008060006135a18585613c78565b915091506135ae81613ce8565b509392505050565b60006001600160a01b0384163b15613758576040517f150b7a020000000000000000000000000000000000000000000000000000000081526001600160a01b0385169063150b7a02906136139033908990889088906004016145c6565b602060405180830381600087803b15801561362d57600080fd5b505af192505050801561365d575060408051601f3d908101601f1916820190925261365a91810190614382565b60015b61370d573d80801561368b576040519150601f19603f3d011682016040523d82523d6000602084013e613690565b606091505b5080516137055760405162461bcd60e51b815260206004820152603360248201527f455243373231413a207472616e7366657220746f206e6f6e204552433732315260448201527f6563656976657220696d706c656d656e746572000000000000000000000000006064820152608401610b7d565b805181602001fd5b7fffffffff00000000000000000000000000000000000000000000000000000000167f150b7a020000000000000000000000000000000000000000000000000000000014905061375c565b5060015b949350505050565b6060816137a457505060408051808201909152600181527f3000000000000000000000000000000000000000000000000000000000000000602082015290565b8160005b81156137ce57806137b8816147be565b91506137c79050600a83614689565b91506137a8565b60008167ffffffffffffffff8111156137f757634e487b7160e01b600052604160045260246000fd5b6040519080825280601f01601f191660200182016040528015613821576020820181803683370190505b5090505b841561375c5761383660018361470b565b9150613843600a866147f7565b61384e906030614671565b60f81b81838151811061387157634e487b7160e01b600052603260045260246000fd5b60200101907effffffffffffffffffffffffffffffffffffffffffffffffffffffffffffff1916908160001a9053506138ab600a86614689565b9450613825565b6000546001600160a01b0384166139315760405162461bcd60e51b815260206004820152602160248201527f455243373231413a206d696e7420746f20746865207a65726f2061646472657360448201527f73000000000000000000000000000000000000000000000000000000000000006064820152608401610b7d565b61393c816000541190565b156139895760405162461bcd60e51b815260206004820152601d60248201527f455243373231413a20746f6b656e20616c7265616479206d696e7465640000006044820152606401610b7d565b7f0000000000000000000000000000000000000000000000000000000000000000831115613a1f5760405162461bcd60e51b815260206004820152602260248201527f455243373231413a207175616e7469747920746f206d696e7420746f6f20686960448201527f67680000000000000000000000000000000000000000000000000000000000006064820152608401610b7d565b6001600160a01b0384166000908152600460209081526040918290208251808401845290546fffffffffffffffffffffffffffffffff80821683527001000000000000000000000000000000009091041691810191909152815180830190925280519091908190613a9190879061463d565b6fffffffffffffffffffffffffffffffff168152602001858360200151613ab8919061463d565b6fffffffffffffffffffffffffffffffff9081169091526001600160a01b03808816600081815260046020908152604080832087519783015187167001000000000000000000000000000000000297909616969096179094558451808601865291825267ffffffffffffffff428116838601908152888352600390955294812091518254945190951674010000000000000000000000000000000000000000027fffffffff0000000000000000000000000000000000000000000000000000000090941694909216939093179190911790915582905b85811015613c6d5760405182906001600160a01b038916906000907fddf252ad1be2c89b69c2b068fc378daa952ba7f163c4a11628f55a4df523b3ef908290a4613bdb60008884886135b6565b613c4d5760405162461bcd60e51b815260206004820152603360248201527f455243373231413a207472616e7366657220746f206e6f6e204552433732315260448201527f6563656976657220696d706c656d656e746572000000000000000000000000006064820152608401610b7d565b81613c57816147be565b9250508080613c65906147be565b915050613b8e565b506000819055611889565b600080825160411415613caf5760208301516040840151606085015160001a613ca387828585613f1f565b94509450505050613ce1565b825160401415613cd95760208301516040840151613cce86838361400c565b935093505050613ce1565b506000905060025b9250929050565b6000816004811115613d0a57634e487b7160e01b600052602160045260246000fd5b1415613d135750565b6001816004811115613d3557634e487b7160e01b600052602160045260246000fd5b1415613d835760405162461bcd60e51b815260206004820152601860248201527f45434453413a20696e76616c6964207369676e617475726500000000000000006044820152606401610b7d565b6002816004811115613da557634e487b7160e01b600052602160045260246000fd5b1415613df35760405162461bcd60e51b815260206004820152601f60248201527f45434453413a20696e76616c6964207369676e6174757265206c656e677468006044820152606401610b7d565b6003816004811115613e1557634e487b7160e01b600052602160045260246000fd5b1415613e895760405162461bcd60e51b815260206004820152602260248201527f45434453413a20696e76616c6964207369676e6174757265202773272076616c60448201527f75650000000000000000000000000000000000000000000000000000000000006064820152608401610b7d565b6004816004811115613eab57634e487b7160e01b600052602160045260246000fd5b14156113f15760405162461bcd60e51b815260206004820152602260248201527f45434453413a20696e76616c6964207369676e6174757265202776272076616c60448201527f75650000000000000000000000000000000000000000000000000000000000006064820152608401610b7d565b6000807f7fffffffffffffffffffffffffffffff5d576e7357a4501ddfe92f46681b20a0831115613f565750600090506003614003565b8460ff16601b14158015613f6e57508460ff16601c14155b15613f7f5750600090506004614003565b6040805160008082526020820180845289905260ff881692820192909252606081018690526080810185905260019060a0016020604051602081039080840390855afa158015613fd3573d6000803e3d6000fd5b5050604051601f1901519150506001600160a01b038116613ffc57600060019250925050614003565b9150600090505b94509492505050565b6000807f7fffffffffffffffffffffffffffffffffffffffffffffffffffffffffffffff83168161404260ff86901c601b614671565b905061405087828885613f1f565b935093505050935093915050565b82805461406a90614783565b90600052602060002090601f01602090048101928261408c57600085556140d2565b82601f106140a557805160ff19168380011785556140d2565b828001600101855582156140d2579182015b828111156140d25782518255916020019190600101906140b7565b506114e69291505b808211156114e657600081556001016140da565b600067ffffffffffffffff8084111561410957614109614837565b604051601f8501601f19908116603f0116810190828211818310171561413157614131614837565b8160405280935085815286868601111561414a57600080fd5b858560208301376000602087830101525050509392505050565b600060208284031215614175578081fd5b81356141808161484d565b9392505050565b60008060408385031215614199578081fd5b82356141a48161484d565b915060208301356141b48161484d565b809150509250929050565b6000806000606084860312156141d3578081fd5b83356141de8161484d565b925060208401356141ee8161484d565b929592945050506040919091013590565b60008060008060808587031215614214578081fd5b843561421f8161484d565b9350602085013561422f8161484d565b925060408501359150606085013567ffffffffffffffff811115614251578182fd5b8501601f81018713614261578182fd5b614270878235602084016140ee565b91505092959194509250565b6000806040838503121561428e578182fd5b82356142998161484d565b915060208301356141b481614862565b600080604083850312156142bb578182fd5b82356142c68161484d565b946020939093013593505050565b6000806000604084860312156142e8578283fd5b833567ffffffffffffffff808211156142ff578485fd5b818601915086601f830112614312578485fd5b813581811115614320578586fd5b8760208260051b8501011115614334578586fd5b6020928301989097509590910135949350505050565b60006020828403121561435b578081fd5b815161418081614862565b600060208284031215614377578081fd5b813561418081614870565b600060208284031215614393578081fd5b815161418081614870565b600080600080606085870312156143b3578182fd5b843567ffffffffffffffff808211156143ca578384fd5b818701915087601f8301126143dd578384fd5b8135818111156143eb578485fd5b8860208285010111156143fc578485fd5b6020928301999098509187013596604001359550909350505050565b600060208284031215614429578081fd5b813567ffffffffffffffff81111561443f578182fd5b8201601f8101841361444f578182fd5b61375c848235602084016140ee565b60006020828403121561446f578081fd5b5035919050565b600060208284031215614487578081fd5b5051919050565b600081518084526144a6816020860160208601614722565b601f01601f19169290920160200192915050565b600081516144cc818560208601614722565b9290920192915050565b600080845482600182811c9150808316806144f257607f831692505b602080841082141561451257634e487b7160e01b87526022600452602487fd5b818015614526576001811461455557614581565b7fffffffffffffffffffffffffffffffffffffffffffffffffffffffffffffff00861689528489019650614581565b60008b815260209020885b868110156145795781548b820152908501908301614560565b505084890196505b5050505050506145bd61459482866144ba565b7f2e6a736f6e000000000000000000000000000000000000000000000000000000815260050190565b95945050505050565b60006001600160a01b038087168352808616602084015250836040830152608060608301526145f8608083018461448e565b9695505050505050565b602081016004831061462457634e487b7160e01b600052602160045260246000fd5b91905290565b602081526000614180602083018461448e565b60006fffffffffffffffffffffffffffffffff8083168185168083038211156146685761466861480b565b01949350505050565b600082198211156146845761468461480b565b500190565b60008261469857614698614821565b500490565b6000817fffffffffffffffffffffffffffffffffffffffffffffffffffffffffffffffff04831182151516156146d5576146d561480b565b500290565b60006fffffffffffffffffffffffffffffffff838116908316818110156147035761470361480b565b039392505050565b60008282101561471d5761471d61480b565b500390565b60005b8381101561473d578181015183820152602001614725565b838111156120045750506000910152565b60008161475d5761475d61480b565b507fffffffffffffffffffffffffffffffffffffffffffffffffffffffffffffffff0190565b600181811c9082168061479757607f821691505b602082108114156147b857634e487b7160e01b600052602260045260246000fd5b50919050565b60007fffffffffffffffffffffffffffffffffffffffffffffffffffffffffffffffff8214156147f0576147f061480b565b5060010190565b60008261480657614806614821565b500690565b634e487b7160e01b600052601160045260246000fd5b634e487b7160e01b600052601260045260246000fd5b634e487b7160e01b600052604160045260246000fd5b6001600160a01b03811681146113f157600080fd5b80151581146113f157600080fd5b7fffffffff00000000000000000000000000000000000000000000000000000000811681146113f157600080fdfea2646970667358221220d3623c6d68f81e09d2673250536d4ef0f63052b3635e688cff7408a1b3cd068864736f6c63430008040033",
  "linkReferences": {},
  "deployedLinkReferences": {}
}