{
  "_format": "hh-sol-artifact-1",
  "contractName": "BabyBoss",
  "sourceName": "contracts/BabyBoss.sol",
  "abi": [
    {
      "inputs": [
        {
          "internalType": "address",
          "name": "_withdrawalAddress",
          "type": "address"
        },
        {
          "internalType": "uint256",
          "name": "_batchSize",
          "type": "uint256"
        }
      ],
      "stateMutability": "nonpayable",
      "type": "constructor"
    },
    {
      "anonymous": false,
      "inputs": [
        {
          "indexed": true,
          "internalType": "address",
          "name": "owner",
          "type": "address"
        },
        {
          "indexed": true,
          "internalType": "address",
          "name": "approved",
          "type": "address"
        },
        {
          "indexed": true,
          "internalType": "uint256",
          "name": "tokenId",
          "type": "uint256"
        }
      ],
      "name": "Approval",
      "type": "event"
    },
    {
      "anonymous": false,
      "inputs": [
        {
          "indexed": true,
          "internalType": "address",
          "name": "owner",
          "type": "address"
        },
        {
          "indexed": true,
          "internalType": "address",
          "name": "operator",
          "type": "address"
        },
        {
          "indexed": false,
          "internalType": "bool",
          "name": "approved",
          "type": "bool"
        }
      ],
      "name": "ApprovalForAll",
      "type": "event"
    },
    {
      "anonymous": false,
      "inputs": [
        {
          "indexed": true,
          "internalType": "address",
          "name": "previousOwner",
          "type": "address"
        },
        {
          "indexed": true,
          "internalType": "address",
          "name": "newOwner",
          "type": "address"
        }
      ],
      "name": "OwnershipTransferred",
      "type": "event"
    },
    {
      "anonymous": false,
      "inputs": [
        {
          "indexed": true,
          "internalType": "address",
          "name": "from",
          "type": "address"
        },
        {
          "indexed": true,
          "internalType": "address",
          "name": "to",
          "type": "address"
        },
        {
          "indexed": true,
          "internalType": "uint256",
          "name": "tokenId",
          "type": "uint256"
        }
      ],
      "name": "Transfer",
      "type": "event"
    },
    {
      "inputs": [
        {
          "internalType": "address",
          "name": "_user",
          "type": "address"
        },
        {
          "internalType": "uint256",
          "name": "_quantity",
          "type": "uint256"
        }
      ],
      "name": "airdrop",
      "outputs": [],
      "stateMutability": "nonpayable",
      "type": "function"
    },
    {
      "inputs": [
        {
          "internalType": "address[]",
          "name": "users",
          "type": "address[]"
        },
        {
          "internalType": "uint256",
          "name": "quantity",
          "type": "uint256"
        }
      ],
      "name": "airdropBatch",
      "outputs": [],
      "stateMutability": "nonpayable",
      "type": "function"
    },
    {
      "inputs": [
        {
          "internalType": "address",
          "name": "to",
          "type": "address"
        },
        {
          "internalType": "uint256",
          "name": "tokenId",
          "type": "uint256"
        }
      ],
      "name": "approve",
      "outputs": [],
      "stateMutability": "nonpayable",
      "type": "function"
    },
    {
      "inputs": [
        {
          "internalType": "address",
          "name": "owner",
          "type": "address"
        }
      ],
      "name": "balanceOf",
      "outputs": [
        {
          "internalType": "uint256",
          "name": "",
          "type": "uint256"
        }
      ],
      "stateMutability": "view",
      "type": "function"
    },
    {
      "inputs": [],
      "name": "baseURI",
      "outputs": [
        {
          "internalType": "string",
          "name": "",
          "type": "string"
        }
      ],
      "stateMutability": "view",
      "type": "function"
    },
    {
      "inputs": [
        {
          "internalType": "bytes",
          "name": "_signature",
          "type": "bytes"
        },
        {
          "internalType": "uint256",
          "name": "quantity",
          "type": "uint256"
        },
        {
          "internalType": "uint256",
          "name": "limit",
          "type": "uint256"
        }
      ],
      "name": "genesisMint",
      "outputs": [],
      "stateMutability": "payable",
      "type": "function"
    },
    {
      "inputs": [
        {
          "internalType": "uint256",
          "name": "tokenId",
          "type": "uint256"
        }
      ],
      "name": "getApproved",
      "outputs": [
        {
          "internalType": "address",
          "name": "",
          "type": "address"
        }
      ],
      "stateMutability": "view",
      "type": "function"
    },
    {
      "inputs": [],
      "name": "getSignerAddress",
      "outputs": [
        {
          "internalType": "address",
          "name": "",
          "type": "address"
        }
      ],
      "stateMutability": "view",
      "type": "function"
    },
    {
      "inputs": [
        {
          "internalType": "address",
          "name": "owner",
          "type": "address"
        },
        {
          "internalType": "address",
          "name": "operator",
          "type": "address"
        }
      ],
      "name": "isApprovedForAll",
      "outputs": [
        {
          "internalType": "bool",
          "name": "",
          "type": "bool"
        }
      ],
      "stateMutability": "view",
      "type": "function"
    },
    {
      "inputs": [
        {
          "internalType": "address",
          "name": "_user",
          "type": "address"
        }
      ],
      "name": "isTeam",
      "outputs": [
        {
          "internalType": "bool",
          "name": "",
          "type": "bool"
        }
      ],
      "stateMutability": "view",
      "type": "function"
    },
    {
      "inputs": [],
      "name": "maxMint",
      "outputs": [
        {
          "internalType": "uint256",
          "name": "",
          "type": "uint256"
        }
      ],
      "stateMutability": "view",
      "type": "function"
    },
    {
      "inputs": [],
      "name": "maxSupply",
      "outputs": [
        {
          "internalType": "uint256",
          "name": "",
          "type": "uint256"
        }
      ],
      "stateMutability": "view",
      "type": "function"
    },
    {
      "inputs": [
        {
          "internalType": "uint256",
          "name": "quantity",
          "type": "uint256"
        }
      ],
      "name": "mint",
      "outputs": [],
      "stateMutability": "payable",
      "type": "function"
    },
    {
      "inputs": [],
      "name": "name",
      "outputs": [
        {
          "internalType": "string",
          "name": "",
          "type": "string"
        }
      ],
      "stateMutability": "view",
      "type": "function"
    },
    {
      "inputs": [],
      "name": "nextOwnerToExplicitlySet",
      "outputs": [
        {
          "internalType": "uint256",
          "name": "",
          "type": "uint256"
        }
      ],
      "stateMutability": "view",
      "type": "function"
    },
    {
      "inputs": [],
      "name": "owner",
      "outputs": [
        {
          "internalType": "address",
          "name": "",
          "type": "address"
        }
      ],
      "stateMutability": "view",
      "type": "function"
    },
    {
      "inputs": [
        {
          "internalType": "uint256",
          "name": "tokenId",
          "type": "uint256"
        }
      ],
      "name": "ownerOf",
      "outputs": [
        {
          "internalType": "address",
          "name": "",
          "type": "address"
        }
      ],
      "stateMutability": "view",
      "type": "function"
    },
    {
      "inputs": [],
      "name": "priceGenesis",
      "outputs": [
        {
          "internalType": "uint256",
          "name": "",
          "type": "uint256"
        }
      ],
      "stateMutability": "view",
      "type": "function"
    },
    {
      "inputs": [],
      "name": "pricePS",
      "outputs": [
        {
          "internalType": "uint256",
          "name": "",
          "type": "uint256"
        }
      ],
      "stateMutability": "view",
      "type": "function"
    },
    {
      "inputs": [],
      "name": "priceWL",
      "outputs": [
        {
          "internalType": "uint256",
          "name": "",
          "type": "uint256"
        }
      ],
      "stateMutability": "view",
      "type": "function"
    },
    {
      "inputs": [
        {
          "internalType": "contract IERC20",
          "name": "_token",
          "type": "address"
        }
      ],
      "name": "recoverToken",
      "outputs": [],
      "stateMutability": "nonpayable",
      "type": "function"
    },
    {
      "inputs": [],
      "name": "renounceOwnership",
      "outputs": [],
      "stateMutability": "nonpayable",
      "type": "function"
    },
    {
      "inputs": [],
      "name": "reserveMinted",
      "outputs": [
        {
          "internalType": "uint256",
          "name": "",
          "type": "uint256"
        }
      ],
      "stateMutability": "view",
      "type": "function"
    },
    {
      "inputs": [],
      "name": "reserved",
      "outputs": [
        {
          "internalType": "uint256",
          "name": "",
          "type": "uint256"
        }
      ],
      "stateMutability": "view",
      "type": "function"
    },
    {
      "inputs": [],
      "name": "revealTime",
      "outputs": [
        {
          "internalType": "uint256",
          "name": "",
          "type": "uint256"
        }
      ],
      "stateMutability": "view",
      "type": "function"
    },
    {
      "inputs": [
        {
          "internalType": "address",
          "name": "from",
          "type": "address"
        },
        {
          "internalType": "address",
          "name": "to",
          "type": "address"
        },
        {
          "internalType": "uint256",
          "name": "tokenId",
          "type": "uint256"
        }
      ],
      "name": "safeTransferFrom",
      "outputs": [],
      "stateMutability": "nonpayable",
      "type": "function"
    },
    {
      "inputs": [
        {
          "internalType": "address",
          "name": "from",
          "type": "address"
        },
        {
          "internalType": "address",
          "name": "to",
          "type": "address"
        },
        {
          "internalType": "uint256",
          "name": "tokenId",
          "type": "uint256"
        },
        {
          "internalType": "bytes",
          "name": "_data",
          "type": "bytes"
        }
      ],
      "name": "safeTransferFrom",
      "outputs": [],
      "stateMutability": "nonpayable",
      "type": "function"
    },
    {
      "inputs": [],
      "name": "saleState",
      "outputs": [
        {
          "internalType": "enum BabyBoss.Period",
          "name": "",
          "type": "uint8"
        }
      ],
      "stateMutability": "view",
      "type": "function"
    },
    {
      "inputs": [
        {
          "internalType": "address",
          "name": "operator",
          "type": "address"
        },
        {
          "internalType": "bool",
          "name": "approved",
          "type": "bool"
        }
      ],
      "name": "setApprovalForAll",
      "outputs": [],
      "stateMutability": "nonpayable",
      "type": "function"
    },
    {
      "inputs": [
        {
          "internalType": "string",
          "name": "_baseURI",
          "type": "string"
        }
      ],
      "name": "setBaseURI",
      "outputs": [],
      "stateMutability": "nonpayable",
      "type": "function"
    },
    {
      "inputs": [
        {
          "internalType": "uint256",
          "name": "_amount",
          "type": "uint256"
        }
      ],
      "name": "setMaxMint",
      "outputs": [],
      "stateMutability": "nonpayable",
      "type": "function"
    },
    {
      "inputs": [
        {
          "internalType": "uint256",
          "name": "_price",
          "type": "uint256"
        }
      ],
      "name": "setPriceGenesis",
      "outputs": [],
      "stateMutability": "nonpayable",
      "type": "function"
    },
    {
      "inputs": [
        {
          "internalType": "uint256",
          "name": "_price",
          "type": "uint256"
        }
      ],
      "name": "setPricePS",
      "outputs": [],
      "stateMutability": "nonpayable",
      "type": "function"
    },
    {
      "inputs": [
        {
          "internalType": "uint256",
          "name": "_price",
          "type": "uint256"
        }
      ],
      "name": "setPriceWL",
      "outputs": [],
      "stateMutability": "nonpayable",
      "type": "function"
    },
    {
      "inputs": [
        {
          "internalType": "uint256",
          "name": "_revealTime",
          "type": "uint256"
        }
      ],
      "name": "setRevealTime",
      "outputs": [],
      "stateMutability": "nonpayable",
      "type": "function"
    },
    {
      "inputs": [
        {
          "internalType": "uint256",
          "name": "_state",
          "type": "uint256"
        }
      ],
      "name": "setSaleState",
      "outputs": [],
      "stateMutability": "nonpayable",
      "type": "function"
    },
    {
      "inputs": [
        {
          "internalType": "address",
          "name": "_signer",
          "type": "address"
        }
      ],
      "name": "setSignerAddress",
      "outputs": [],
      "stateMutability": "nonpayable",
      "type": "function"
    },
    {
      "inputs": [
        {
          "internalType": "address",
          "name": "_user",
          "type": "address"
        },
        {
          "internalType": "bool",
          "name": "_state",
          "type": "bool"
        }
      ],
      "name": "setTeam",
      "outputs": [],
      "stateMutability": "nonpayable",
      "type": "function"
    },
    {
      "inputs": [
        {
          "internalType": "string",
          "name": "_uri",
          "type": "string"
        }
      ],
      "name": "setUnrevealedURI",
      "outputs": [],
      "stateMutability": "nonpayable",
      "type": "function"
    },
    {
      "inputs": [
        {
          "internalType": "address",
          "name": "_withdrawal",
          "type": "address"
        }
      ],
      "name": "setWithdrawalAddress",
      "outputs": [],
      "stateMutability": "nonpayable",
      "type": "function"
    },
    {
      "inputs": [
        {
          "internalType": "bytes4",
          "name": "interfaceId",
          "type": "bytes4"
        }
      ],
      "name": "supportsInterface",
      "outputs": [
        {
          "internalType": "bool",
          "name": "",
          "type": "bool"
        }
      ],
      "stateMutability": "view",
      "type": "function"
    },
    {
      "inputs": [],
      "name": "symbol",
      "outputs": [
        {
          "internalType": "string",
          "name": "",
          "type": "string"
        }
      ],
      "stateMutability": "view",
      "type": "function"
    },
    {
      "inputs": [
        {
          "internalType": "uint256",
          "name": "index",
          "type": "uint256"
        }
      ],
      "name": "tokenByIndex",
      "outputs": [
        {
          "internalType": "uint256",
          "name": "",
          "type": "uint256"
        }
      ],
      "stateMutability": "view",
      "type": "function"
    },
    {
      "inputs": [
        {
          "internalType": "address",
          "name": "owner",
          "type": "address"
        },
        {
          "internalType": "uint256",
          "name": "index",
          "type": "uint256"
        }
      ],
      "name": "tokenOfOwnerByIndex",
      "outputs": [
        {
          "internalType": "uint256",
          "name": "",
          "type": "uint256"
        }
      ],
      "stateMutability": "view",
      "type": "function"
    },
    {
      "inputs": [
        {
          "internalType": "uint256",
          "name": "tokenId",
          "type": "uint256"
        }
      ],
      "name": "tokenURI",
      "outputs": [
        {
          "internalType": "string",
          "name": "",
          "type": "string"
        }
      ],
      "stateMutability": "view",
      "type": "function"
    },
    {
      "inputs": [],
      "name": "totalSupply",
      "outputs": [
        {
          "internalType": "uint256",
          "name": "",
          "type": "uint256"
        }
      ],
      "stateMutability": "view",
      "type": "function"
    },
    {
      "inputs": [
        {
          "internalType": "address",
          "name": "from",
          "type": "address"
        },
        {
          "internalType": "address",
          "name": "to",
          "type": "address"
        },
        {
          "internalType": "uint256",
          "name": "tokenId",
          "type": "uint256"
        }
      ],
      "name": "transferFrom",
      "outputs": [],
      "stateMutability": "nonpayable",
      "type": "function"
    },
    {
      "inputs": [
        {
          "internalType": "address",
          "name": "newOwner",
          "type": "address"
        }
      ],
      "name": "transferOwnership",
      "outputs": [],
      "stateMutability": "nonpayable",
      "type": "function"
    },
    {
      "inputs": [],
      "name": "unrevealedURI",
      "outputs": [
        {
          "internalType": "string",
          "name": "",
          "type": "string"
        }
      ],
      "stateMutability": "view",
      "type": "function"
    },
    {
      "inputs": [
        {
          "internalType": "bytes",
          "name": "_signature",
          "type": "bytes"
        },
        {
          "internalType": "uint256",
          "name": "quantity",
          "type": "uint256"
        },
        {
          "internalType": "uint256",
          "name": "limit",
          "type": "uint256"
        }
      ],
      "name": "whitelistMint",
      "outputs": [],
      "stateMutability": "payable",
      "type": "function"
    },
    {
      "inputs": [],
      "name": "withdraw",
      "outputs": [],
      "stateMutability": "nonpayable",
      "type": "function"
    },
    {
      "inputs": [],
      "name": "withdrawalAddress",
      "outputs": [
        {
          "internalType": "address",
          "name": "",
          "type": "address"
        }
      ],
      "stateMutability": "view",
      "type": "function"
    }
  ],
  "bytecode": "0x60a06040526000808055600755600a8054610100600160a81b03191674f39fd6e51aad88f6f4ce6ab8827279cfffb9226600179055610f9f600b5561012c600c556002600d55655af3107a4000600e819055600f5566038d7ea4c680006010553480156200006c57600080fd5b5060405162004a8238038062004a828339810160408190526200008f91620002b4565b604051806040016040528060098152602001684261627920426f737360b81b815250604051806040016040528060068152602001652442424f535360d01b8152508260008111620001365760405162461bcd60e51b815260206004820152602760248201527f455243373231413a206d61782062617463682073697a65206d757374206265206044820152666e6f6e7a65726f60c81b606482015260840160405180910390fd5b82516200014b9060019060208601906200020e565b508151620001619060029060208501906200020e565b506080525062000173905033620001bc565b5060016009819055601580546001600160a01b0319166001600160a01b039390931692909217909155336000908152601960205260409020805460ff191690911790556200032b565b600880546001600160a01b038381166001600160a01b0319831681179093556040519116919082907f8be0079c531659141344cd1fd0a4f28419497f9722a3daafe3b4186f6b6457e090600090a35050565b8280546200021c90620002ee565b90600052602060002090601f0160209004810192826200024057600085556200028b565b82601f106200025b57805160ff19168380011785556200028b565b828001600101855582156200028b579182015b828111156200028b5782518255916020019190600101906200026e565b50620002999291506200029d565b5090565b5b808211156200029957600081556001016200029e565b60008060408385031215620002c7578182fd5b82516001600160a01b0381168114620002de578283fd5b6020939093015192949293505050565b600181811c908216806200030357607f821691505b602082108114156200032557634e487b7160e01b600052602260045260246000fd5b50919050565b60805161472d62000355600039600081816131cd015281816131f701526137e4015261472d6000f3fe60806040526004361061033f5760003560e01c806370a08231116101b0578063b88d4fde116100ec578063d73ae0a111610095578063f2bcd0221161006f578063f2bcd022146108e9578063f2fde38b14610909578063fe2c7fee14610929578063fe60d12c1461094957600080fd5b8063d73ae0a114610877578063dfc5f9301461088a578063e985e9c5146108a057600080fd5b8063c87b56dd116100c6578063c87b56dd1461082b578063d5abeb011461084b578063d7224ba01461086157600080fd5b8063b88d4fde146107d5578063ba829d71146107f5578063c1e285071461080b57600080fd5b80638ba4cc3c116101595780639be65a60116101335780639be65a6014610762578063a0712d6814610782578063a22cb46514610795578063b655af4f146107b557600080fd5b80638ba4cc3c1461070f5780638da5cb5b1461072f57806395d89b411461074d57600080fd5b806379b2f57f1161018a57806379b2f57f146106c65780637ea685c3146106dc57806381d8488f146106ef57600080fd5b806370a082311461067b578063715018a61461069b5780637501f741146106b057600080fd5b80632f745c591161027f57806355f804b3116102285780636352211e116102025780636352211e14610611578063671c3e4f146106315780636c0360eb146106515780637035bf181461066657600080fd5b806355f804b3146105aa5780635ac0605d146105ca578063603f4d52146105ea57600080fd5b80634c81433f116102595780634c81433f146105545780634f6ccce71461056a578063547520fe1461058a57600080fd5b80632f745c59146104ff5780633ccfd60b1461051f57806342842e0e1461053457600080fd5b8063095ea7b3116102ec5780631c0e2a11116102c65780631c0e2a111461048957806321b8092e1461049f57806323b872dd146104bf57806324851914146104df57600080fd5b8063095ea7b31461043557806318160ddd146104555780631a296e021461047457600080fd5b8063081812fc1161031d578063081812fc146103bd578063084c4088146103f5578063092545ce1461041557600080fd5b806301ffc9a714610344578063046dc1661461037957806306fdde031461039b575b600080fd5b34801561035057600080fd5b5061036461035f3660046141bf565b61095f565b60405190151581526020015b60405180910390f35b34801561038557600080fd5b50610399610394366004613fbd565b610a90565b005b3480156103a757600080fd5b506103b0610b2e565b6040516103709190614483565b3480156103c957600080fd5b506103dd6103d83660046142b7565b610bc0565b6040516001600160a01b039091168152602001610370565b34801561040157600080fd5b506103996104103660046142b7565b610c5b565b34801561042157600080fd5b506103996104303660046140d5565b610d25565b34801561044157600080fd5b50610399610450366004614102565b610e37565b34801561046157600080fd5b506000545b604051908152602001610370565b34801561048057600080fd5b506103dd610f6a565b34801561049557600080fd5b5061046660105481565b3480156104ab57600080fd5b506103996104ba366004613fbd565b610fdc565b3480156104cb57600080fd5b506103996104da366004614018565b611070565b3480156104eb57600080fd5b506103646104fa366004613fbd565b61107b565b34801561050b57600080fd5b5061046661051a366004614102565b6110f7565b34801561052b57600080fd5b506103996112a0565b34801561054057600080fd5b5061039961054f366004614018565b61135d565b34801561056057600080fd5b5061046660125481565b34801561057657600080fd5b506104666105853660046142b7565b611378565b34801561059657600080fd5b506103996105a53660046142b7565b6113f4565b3480156105b657600080fd5b506103996105c5366004614271565b6114a3565b3480156105d657600080fd5b506103996105e53660046142b7565b611514565b3480156105f657600080fd5b50600a546106049060ff1681565b604051610370919061445b565b34801561061d57600080fd5b506103dd61062c3660046142b7565b611573565b34801561063d57600080fd5b5061039961064c36600461412d565b611585565b34801561065d57600080fd5b506103b061179b565b34801561067257600080fd5b506103b0611829565b34801561068757600080fd5b50610466610696366004613fbd565b611836565b3480156106a757600080fd5b506103996118e2565b3480156106bc57600080fd5b50610466600d5481565b3480156106d257600080fd5b50610466600e5481565b6103996106ea3660046141f7565b611948565b3480156106fb57600080fd5b5061039961070a3660046142b7565b611d00565b34801561071b57600080fd5b5061039961072a366004614102565b611d5f565b34801561073b57600080fd5b506008546001600160a01b03166103dd565b34801561075957600080fd5b506103b0611f07565b34801561076e57600080fd5b5061039961077d366004613fbd565b611f16565b6103996107903660046142b7565b61210f565b3480156107a157600080fd5b506103996107b03660046140d5565b6123a5565b3480156107c157600080fd5b506103996107d03660046142b7565b612488565b3480156107e157600080fd5b506103996107f0366004614058565b6124e7565b34801561080157600080fd5b5061046660115481565b34801561081757600080fd5b506103996108263660046142b7565b612570565b34801561083757600080fd5b506103b06108463660046142b7565b6125cf565b34801561085757600080fd5b50610466600b5481565b34801561086d57600080fd5b5061046660075481565b6103996108853660046141f7565b6127c0565b34801561089657600080fd5b50610466600f5481565b3480156108ac57600080fd5b506103646108bb366004613fe0565b6001600160a01b03918216600090815260066020908152604080832093909416825291909152205460ff1690565b3480156108f557600080fd5b506015546103dd906001600160a01b031681565b34801561091557600080fd5b50610399610924366004613fbd565b612b4d565b34801561093557600080fd5b50610399610944366004614271565b612c2c565b34801561095557600080fd5b50610466600c5481565b60007fffffffff0000000000000000000000000000000000000000000000000000000082167f80ac58cd0000000000000000000000000000000000000000000000000000000014806109f257507fffffffff0000000000000000000000000000000000000000000000000000000082167f5b5e139f00000000000000000000000000000000000000000000000000000000145b80610a3e57507fffffffff0000000000000000000000000000000000000000000000000000000082167f780e9d6300000000000000000000000000000000000000000000000000000000145b80610a8a57507f01ffc9a7000000000000000000000000000000000000000000000000000000007fffffffff000000000000000000000000000000000000000000000000000000008316145b92915050565b6008546001600160a01b03163314610aef5760405162461bcd60e51b815260206004820181905260248201527f4f776e61626c653a2063616c6c6572206973206e6f7420746865206f776e657260448201526064015b60405180910390fd5b600a80546001600160a01b03909216610100027fffffffffffffffffffffff0000000000000000000000000000000000000000ff909216919091179055565b606060018054610b3d906145dc565b80601f0160208091040260200160405190810160405280929190818152602001828054610b69906145dc565b8015610bb65780601f10610b8b57610100808354040283529160200191610bb6565b820191906000526020600020905b815481529060010190602001808311610b9957829003601f168201915b5050505050905090565b6000610bcd826000541190565b610c3f5760405162461bcd60e51b815260206004820152602d60248201527f455243373231413a20617070726f76656420717565727920666f72206e6f6e6560448201527f78697374656e7420746f6b656e000000000000000000000000000000000000006064820152608401610ae6565b506000908152600560205260409020546001600160a01b031690565b6008546001600160a01b03163314610cb55760405162461bcd60e51b815260206004820181905260248201527f4f776e61626c653a2063616c6c6572206973206e6f7420746865206f776e65726044820152606401610ae6565b806003811115610cd557634e487b7160e01b600052602160045260246000fd5b600a80547fffffffffffffffffffffffffffffffffffffffffffffffffffffffffffffff00166001836003811115610d1d57634e487b7160e01b600052602160045260246000fd5b021790555050565b6008546001600160a01b03163314610d7f5760405162461bcd60e51b815260206004820181905260248201527f4f776e61626c653a2063616c6c6572206973206e6f7420746865206f776e65726044820152606401610ae6565b6001600160a01b03821660009081526019602052604090205460ff1615158115151415610dee5760405162461bcd60e51b815260206004820152600960248201527f4e4f5f4348414e474500000000000000000000000000000000000000000000006044820152606401610ae6565b6001600160a01b0391909116600090815260196020526040902080547fffffffffffffffffffffffffffffffffffffffffffffffffffffffffffffff0016911515919091179055565b6000610e4282611573565b9050806001600160a01b0316836001600160a01b03161415610ecc5760405162461bcd60e51b815260206004820152602260248201527f455243373231413a20617070726f76616c20746f2063757272656e74206f776e60448201527f65720000000000000000000000000000000000000000000000000000000000006064820152608401610ae6565b336001600160a01b0382161480610ee85750610ee881336108bb565b610f5a5760405162461bcd60e51b815260206004820152603960248201527f455243373231413a20617070726f76652063616c6c6572206973206e6f74206f60448201527f776e6572206e6f7220617070726f76656420666f7220616c6c000000000000006064820152608401610ae6565b610f65838383612c99565b505050565b6008546000906001600160a01b03163314610fc75760405162461bcd60e51b815260206004820181905260248201527f4f776e61626c653a2063616c6c6572206973206e6f7420746865206f776e65726044820152606401610ae6565b50600a5461010090046001600160a01b031690565b6008546001600160a01b031633146110365760405162461bcd60e51b815260206004820181905260248201527f4f776e61626c653a2063616c6c6572206973206e6f7420746865206f776e65726044820152606401610ae6565b601580547fffffffffffffffffffffffff0000000000000000000000000000000000000000166001600160a01b0392909216919091179055565b610f65838383612d0d565b6008546000906001600160a01b031633146110d85760405162461bcd60e51b815260206004820181905260248201527f4f776e61626c653a2063616c6c6572206973206e6f7420746865206f776e65726044820152606401610ae6565b506001600160a01b031660009081526019602052604090205460ff1690565b600061110283611836565b82106111765760405162461bcd60e51b815260206004820152602260248201527f455243373231413a206f776e657220696e646578206f7574206f6620626f756e60448201527f64730000000000000000000000000000000000000000000000000000000000006064820152608401610ae6565b600080549080805b83811015611231576000818152600360209081526040918290208251808401909352546001600160a01b0381168084527401000000000000000000000000000000000000000090910467ffffffffffffffff1691830191909152156111e257805192505b876001600160a01b0316836001600160a01b0316141561121e578684141561121057509350610a8a92505050565b8361121a81614617565b9450505b508061122981614617565b91505061117e565b5060405162461bcd60e51b815260206004820152602e60248201527f455243373231413a20756e61626c6520746f2067657420746f6b656e206f662060448201527f6f776e657220627920696e6465780000000000000000000000000000000000006064820152608401610ae6565b6008546001600160a01b031633146112fa5760405162461bcd60e51b815260206004820181905260248201527f4f776e61626c653a2063616c6c6572206973206e6f7420746865206f776e65726044820152606401610ae6565b6015546040516000916001600160a01b03169047908381818185875af1925050503d8060008114611347576040519150601f19603f3d011682016040523d82523d6000602084013e61134c565b606091505b505090508061135a57600080fd5b50565b610f65838383604051806020016040528060008152506124e7565b6000805482106113f05760405162461bcd60e51b815260206004820152602360248201527f455243373231413a20676c6f62616c20696e646578206f7574206f6620626f7560448201527f6e647300000000000000000000000000000000000000000000000000000000006064820152608401610ae6565b5090565b6008546001600160a01b0316331461144e5760405162461bcd60e51b815260206004820181905260248201527f4f776e61626c653a2063616c6c6572206973206e6f7420746865206f776e65726044820152606401610ae6565b6000811161149e5760405162461bcd60e51b815260206004820152600e60248201527f414d4f554e545f544f4f5f4c4f570000000000000000000000000000000000006044820152606401610ae6565b600d55565b6008546001600160a01b031633146114fd5760405162461bcd60e51b815260206004820181905260248201527f4f776e61626c653a2063616c6c6572206973206e6f7420746865206f776e65726044820152606401610ae6565b8051611510906013906020840190613eb7565b5050565b6008546001600160a01b0316331461156e5760405162461bcd60e51b815260206004820181905260248201527f4f776e61626c653a2063616c6c6572206973206e6f7420746865206f776e65726044820152606401610ae6565b601055565b600061157e82613138565b5192915050565b3233146115d45760405162461bcd60e51b815260206004820152601260248201527f43414c4c45525f49535f434f4e545241435400000000000000000000000000006044820152606401610ae6565b3360009081526019602052604090205460ff166116335760405162461bcd60e51b815260206004820152600b60248201527f4e4f545f494e5f5445414d0000000000000000000000000000000000000000006044820152606401610ae6565b61163d82826144f6565b6000600b54818361164d60005490565b61165791906144ca565b61166191906144ca565b11156116af5760405162461bcd60e51b815260206004820152601b60248201527f4d41585f535550504c593a20414d4f554e545f544f4f5f4849474800000000006044820152606401610ae6565b600c546116bc84866144f6565b6012546116c991906144ca565b11156117175760405162461bcd60e51b815260206004820152600c60248201527f4f5645525f5245534552564500000000000000000000000000000000000000006044820152606401610ae6565b61172183856144f6565b6012600082825461173291906144ca565b90915550600090505b848110156117935761178186868381811061176657634e487b7160e01b600052603260045260246000fd5b905060200201602081019061177b9190613fbd565b85613314565b8061178b81614617565b91505061173b565b505050505050565b601380546117a8906145dc565b80601f01602080910402602001604051908101604052809291908181526020018280546117d4906145dc565b80156118215780601f106117f657610100808354040283529160200191611821565b820191906000526020600020905b81548152906001019060200180831161180457829003601f168201915b505050505081565b601480546117a8906145dc565b60006001600160a01b0382166118b45760405162461bcd60e51b815260206004820152602b60248201527f455243373231413a2062616c616e636520717565727920666f7220746865207a60448201527f65726f20616464726573730000000000000000000000000000000000000000006064820152608401610ae6565b506001600160a01b03166000908152600460205260409020546fffffffffffffffffffffffffffffffff1690565b6008546001600160a01b0316331461193c5760405162461bcd60e51b815260206004820181905260248201527f4f776e61626c653a2063616c6c6572206973206e6f7420746865206f776e65726044820152606401610ae6565b611946600061332e565b565b3233146119975760405162461bcd60e51b815260206004820152601260248201527f43414c4c45525f49535f434f4e545241435400000000000000000000000000006044820152606401610ae6565b600260095414156119ea5760405162461bcd60e51b815260206004820152601f60248201527f5265656e7472616e637947756172643a207265656e7472616e742063616c6c006044820152606401610ae6565b6002600955600f5482906119fe81836144f6565b341015611a4d5760405162461bcd60e51b815260206004820152601460248201527f50524943453a2056414c55455f544f4f5f4c4f570000000000000000000000006044820152606401610ae6565b600280600a5460ff166003811115611a7557634e487b7160e01b600052602160045260246000fd5b14611ac25760405162461bcd60e51b815260206004820152601060248201527f57524f4e475f53414c455f5354415445000000000000000000000000000000006044820152606401610ae6565b600a548790879060ff1686600030836003811115611af057634e487b7160e01b600052602160045260246000fd5b604080516001600160a01b0390931660208401528201526060810183905233608082015260a00160408051808303601f190181528282528051602091820120600a54601f890183900483028501830190935287845293506101009091046001600160a01b031691611b87918890889081908401838280828437600092019190915250611b8192508691506133989050565b906133eb565b6001600160a01b031614611bdd5760405162461bcd60e51b815260206004820152601360248201527f494e434f52524543545f5349474e4154555245000000000000000000000000006044820152606401610ae6565b89600c54600b548183611bef60005490565b611bf991906144ca565b611c0391906144ca565b1115611c515760405162461bcd60e51b815260206004820152601b60248201527f4d41585f535550504c593a20414d4f554e545f544f4f5f4849474800000000006044820152606401610ae6565b336000908152601860205260409020548b90611c6e908e906144ca565b1115611cbc5760405162461bcd60e51b815260206004820152601960248201527f4d41585f4d494e543a20414d4f554e545f544f4f5f48494748000000000000006044820152606401610ae6565b33600090815260186020526040812080548e9290611cdb9084906144ca565b90915550611ceb9050338d613314565b50506001600955505050505050505050505050565b6008546001600160a01b03163314611d5a5760405162461bcd60e51b815260206004820181905260248201527f4f776e61626c653a2063616c6c6572206973206e6f7420746865206f776e65726044820152606401610ae6565b600f55565b323314611dae5760405162461bcd60e51b815260206004820152601260248201527f43414c4c45525f49535f434f4e545241435400000000000000000000000000006044820152606401610ae6565b3360009081526019602052604090205460ff16611e0d5760405162461bcd60e51b815260206004820152600b60248201527f4e4f545f494e5f5445414d0000000000000000000000000000000000000000006044820152606401610ae6565b806000600b548183611e1e60005490565b611e2891906144ca565b611e3291906144ca565b1115611e805760405162461bcd60e51b815260206004820152601b60248201527f4d41585f535550504c593a20414d4f554e545f544f4f5f4849474800000000006044820152606401610ae6565b600c5483601254611e9191906144ca565b1115611edf5760405162461bcd60e51b815260206004820152600c60248201527f4f5645525f5245534552564500000000000000000000000000000000000000006044820152606401610ae6565b8260126000828254611ef191906144ca565b90915550611f0190508484613314565b50505050565b606060028054610b3d906145dc565b6008546001600160a01b03163314611f705760405162461bcd60e51b815260206004820181905260248201527f4f776e61626c653a2063616c6c6572206973206e6f7420746865206f776e65726044820152606401610ae6565b6040517f70a082310000000000000000000000000000000000000000000000000000000081523060048201526000906001600160a01b038316906370a082319060240160206040518083038186803b158015611fcb57600080fd5b505afa158015611fdf573d6000803e3d6000fd5b505050506040513d601f19601f8201168201806040525081019061200391906142cf565b90506000826001600160a01b031663a9059cbb6120286008546001600160a01b031690565b6040517fffffffff0000000000000000000000000000000000000000000000000000000060e084901b1681526001600160a01b03909116600482015260248101859052604401602060405180830381600087803b15801561208857600080fd5b505af115801561209c573d6000803e3d6000fd5b505050506040513d601f19601f820116820180604052508101906120c091906141a3565b905080610f655760405162461bcd60e51b815260206004820152601e60248201527f546f6b656e20636f756c64206e6f74206265207472616e7366657272656400006044820152606401610ae6565b32331461215e5760405162461bcd60e51b815260206004820152601260248201527f43414c4c45525f49535f434f4e545241435400000000000000000000000000006044820152606401610ae6565b600260095414156121b15760405162461bcd60e51b815260206004820152601f60248201527f5265656e7472616e637947756172643a207265656e7472616e742063616c6c006044820152606401610ae6565b600260095560105481906121c581836144f6565b3410156122145760405162461bcd60e51b815260206004820152601460248201527f50524943453a2056414c55455f544f4f5f4c4f570000000000000000000000006044820152606401610ae6565b600380600a5460ff16600381111561223c57634e487b7160e01b600052602160045260246000fd5b146122895760405162461bcd60e51b815260206004820152601060248201527f57524f4e475f53414c455f5354415445000000000000000000000000000000006044820152606401610ae6565b83600c54600b54818361229b60005490565b6122a591906144ca565b6122af91906144ca565b11156122fd5760405162461bcd60e51b815260206004820152601b60248201527f4d41585f535550504c593a20414d4f554e545f544f4f5f4849474800000000006044820152606401610ae6565b600d543360009081526016602052604090205461231b9088906144ca565b11156123695760405162461bcd60e51b815260206004820152601960248201527f4d41585f4d494e543a20414d4f554e545f544f4f5f48494748000000000000006044820152606401610ae6565b33600090815260166020526040812080548892906123889084906144ca565b9091555061239890503387613314565b5050600160095550505050565b6001600160a01b0382163314156123fe5760405162461bcd60e51b815260206004820152601a60248201527f455243373231413a20617070726f766520746f2063616c6c65720000000000006044820152606401610ae6565b3360008181526006602090815260408083206001600160a01b0387168085529083529281902080547fffffffffffffffffffffffffffffffffffffffffffffffffffffffffffffff001686151590811790915590519081529192917f17307eab39ab6107e8899845ad3d59bd9653f200f220920489ca2b5937696c31910160405180910390a35050565b6008546001600160a01b031633146124e25760405162461bcd60e51b815260206004820181905260248201527f4f776e61626c653a2063616c6c6572206973206e6f7420746865206f776e65726044820152606401610ae6565b600e55565b6124f2848484612d0d565b6124fe8484848461340f565b611f015760405162461bcd60e51b815260206004820152603360248201527f455243373231413a207472616e7366657220746f206e6f6e204552433732315260448201527f6563656976657220696d706c656d656e746572000000000000000000000000006064820152608401610ae6565b6008546001600160a01b031633146125ca5760405162461bcd60e51b815260206004820181905260248201527f4f776e61626c653a2063616c6c6572206973206e6f7420746865206f776e65726044820152606401610ae6565b601155565b60606125dc826000541190565b61264e5760405162461bcd60e51b815260206004820152602f60248201527f4552433732314d657461646174613a2055524920717565727920666f72206e6f60448201527f6e6578697374656e7420746f6b656e00000000000000000000000000000000006064820152608401610ae6565b601154421061272e57600060138054612666906145dc565b9050116126fd576014805461267a906145dc565b80601f01602080910402602001604051908101604052809291908181526020018280546126a6906145dc565b80156126f35780601f106126c8576101008083540402835291602001916126f3565b820191906000526020600020905b8154815290600101906020018083116126d657829003601f168201915b5050505050610a8a565b6013612708836135bd565b60405160200161271992919061432f565b60405160208183030381529060405292915050565b6014805461273b906145dc565b80601f0160208091040260200160405190810160405280929190818152602001828054612767906145dc565b80156127b45780601f10612789576101008083540402835291602001916127b4565b820191906000526020600020905b81548152906001019060200180831161279757829003601f168201915b50505050509050919050565b32331461280f5760405162461bcd60e51b815260206004820152601260248201527f43414c4c45525f49535f434f4e545241435400000000000000000000000000006044820152606401610ae6565b600260095414156128625760405162461bcd60e51b815260206004820152601f60248201527f5265656e7472616e637947756172643a207265656e7472616e742063616c6c006044820152606401610ae6565b6002600955600e54829061287681836144f6565b3410156128c55760405162461bcd60e51b815260206004820152601460248201527f50524943453a2056414c55455f544f4f5f4c4f570000000000000000000000006044820152606401610ae6565b600180600a5460ff1660038111156128ed57634e487b7160e01b600052602160045260246000fd5b1461293a5760405162461bcd60e51b815260206004820152601060248201527f57524f4e475f53414c455f5354415445000000000000000000000000000000006044820152606401610ae6565b600a548790879060ff168660003083600381111561296857634e487b7160e01b600052602160045260246000fd5b604080516001600160a01b0390931660208401528201526060810183905233608082015260a00160408051808303601f190181528282528051602091820120600a54601f890183900483028501830190935287845293506101009091046001600160a01b0316916129f9918890889081908401838280828437600092019190915250611b8192508691506133989050565b6001600160a01b031614612a4f5760405162461bcd60e51b815260206004820152601360248201527f494e434f52524543545f5349474e4154555245000000000000000000000000006044820152606401610ae6565b89600c54600b548183612a6160005490565b612a6b91906144ca565b612a7591906144ca565b1115612ac35760405162461bcd60e51b815260206004820152601b60248201527f4d41585f535550504c593a20414d4f554e545f544f4f5f4849474800000000006044820152606401610ae6565b336000908152601760205260409020548b90612ae0908e906144ca565b1115612b2e5760405162461bcd60e51b815260206004820152601960248201527f4d41585f4d494e543a20414d4f554e545f544f4f5f48494748000000000000006044820152606401610ae6565b33600090815260176020526040812080548e9290611cdb9084906144ca565b6008546001600160a01b03163314612ba75760405162461bcd60e51b815260206004820181905260248201527f4f776e61626c653a2063616c6c6572206973206e6f7420746865206f776e65726044820152606401610ae6565b6001600160a01b038116612c235760405162461bcd60e51b815260206004820152602660248201527f4f776e61626c653a206e6577206f776e657220697320746865207a65726f206160448201527f64647265737300000000000000000000000000000000000000000000000000006064820152608401610ae6565b61135a8161332e565b6008546001600160a01b03163314612c865760405162461bcd60e51b815260206004820181905260248201527f4f776e61626c653a2063616c6c6572206973206e6f7420746865206f776e65726044820152606401610ae6565b8051611510906014906020840190613eb7565b60008281526005602052604080822080547fffffffffffffffffffffffff0000000000000000000000000000000000000000166001600160a01b0387811691821790925591518593918516917f8c5be1e5ebec7d5bd14f71427d1e84f3dd0314c0f7b2291e5b200ac8c7c3b92591a4505050565b6000612d1882613138565b80519091506000906001600160a01b0316336001600160a01b03161480612d4f575033612d4484610bc0565b6001600160a01b0316145b80612d6157508151612d6190336108bb565b905080612dd65760405162461bcd60e51b815260206004820152603260248201527f455243373231413a207472616e736665722063616c6c6572206973206e6f742060448201527f6f776e6572206e6f7220617070726f76656400000000000000000000000000006064820152608401610ae6565b846001600160a01b031682600001516001600160a01b031614612e615760405162461bcd60e51b815260206004820152602660248201527f455243373231413a207472616e736665722066726f6d20696e636f727265637460448201527f206f776e657200000000000000000000000000000000000000000000000000006064820152608401610ae6565b6001600160a01b038416612edd5760405162461bcd60e51b815260206004820152602560248201527f455243373231413a207472616e7366657220746f20746865207a65726f20616460448201527f64726573730000000000000000000000000000000000000000000000000000006064820152608401610ae6565b612eed6000848460000151612c99565b6001600160a01b0385166000908152600460205260408120805460019290612f289084906fffffffffffffffffffffffffffffffff16614533565b82546101009290920a6fffffffffffffffffffffffffffffffff8181021990931691831602179091556001600160a01b03861660009081526004602052604081208054600194509092612f7d91859116614496565b82546fffffffffffffffffffffffffffffffff9182166101009390930a9283029190920219909116179055506040805180820182526001600160a01b03808716825267ffffffffffffffff42811660208085019182526000898152600390915294852093518454915190921674010000000000000000000000000000000000000000027fffffffff0000000000000000000000000000000000000000000000000000000090911691909216171790556130378460016144ca565b6000818152600360205260409020549091506001600160a01b03166130f257613061816000541190565b156130f25760408051808201825284516001600160a01b03908116825260208087015167ffffffffffffffff908116828501908152600087815260039093529490912092518354945190911674010000000000000000000000000000000000000000027fffffffff000000000000000000000000000000000000000000000000000000009094169116179190911790555b83856001600160a01b0316876001600160a01b03167fddf252ad1be2c89b69c2b068fc378daa952ba7f163c4a11628f55a4df523b3ef60405160405180910390a4611793565b6040805180820190915260008082526020820152613157826000541190565b6131c95760405162461bcd60e51b815260206004820152602a60248201527f455243373231413a206f776e657220717565727920666f72206e6f6e6578697360448201527f74656e7420746f6b656e000000000000000000000000000000000000000000006064820152608401610ae6565b60007f0000000000000000000000000000000000000000000000000000000000000000831061322a5761321c7f000000000000000000000000000000000000000000000000000000000000000084614564565b6132279060016144ca565b90505b825b8181106132a5576000818152600360209081526040918290208251808401909352546001600160a01b0381168084527401000000000000000000000000000000000000000090910467ffffffffffffffff16918301919091521561329257949350505050565b508061329d816145a7565b91505061322c565b5060405162461bcd60e51b815260206004820152602f60248201527f455243373231413a20756e61626c6520746f2064657465726d696e652074686560448201527f206f776e6572206f6620746f6b656e00000000000000000000000000000000006064820152608401610ae6565b61151082826040518060200160405280600081525061370b565b600880546001600160a01b038381167fffffffffffffffffffffffff0000000000000000000000000000000000000000831681179093556040519116919082907f8be0079c531659141344cd1fd0a4f28419497f9722a3daafe3b4186f6b6457e090600090a35050565b6040517f19457468657265756d205369676e6564204d6573736167653a0a3332000000006020820152603c8101829052600090605c01604051602081830303815290604052805190602001209050919050565b60008060006133fa8585613ad1565b9150915061340781613b41565b509392505050565b60006001600160a01b0384163b156135b1576040517f150b7a020000000000000000000000000000000000000000000000000000000081526001600160a01b0385169063150b7a029061346c90339089908890889060040161441f565b602060405180830381600087803b15801561348657600080fd5b505af19250505080156134b6575060408051601f3d908101601f191682019092526134b3918101906141db565b60015b613566573d8080156134e4576040519150601f19603f3d011682016040523d82523d6000602084013e6134e9565b606091505b50805161355e5760405162461bcd60e51b815260206004820152603360248201527f455243373231413a207472616e7366657220746f206e6f6e204552433732315260448201527f6563656976657220696d706c656d656e746572000000000000000000000000006064820152608401610ae6565b805181602001fd5b7fffffffff00000000000000000000000000000000000000000000000000000000167f150b7a02000000000000000000000000000000000000000000000000000000001490506135b5565b5060015b949350505050565b6060816135fd57505060408051808201909152600181527f3000000000000000000000000000000000000000000000000000000000000000602082015290565b8160005b8115613627578061361181614617565b91506136209050600a836144e2565b9150613601565b60008167ffffffffffffffff81111561365057634e487b7160e01b600052604160045260246000fd5b6040519080825280601f01601f19166020018201604052801561367a576020820181803683370190505b5090505b84156135b55761368f600183614564565b915061369c600a86614650565b6136a79060306144ca565b60f81b8183815181106136ca57634e487b7160e01b600052603260045260246000fd5b60200101907effffffffffffffffffffffffffffffffffffffffffffffffffffffffffffff1916908160001a905350613704600a866144e2565b945061367e565b6000546001600160a01b03841661378a5760405162461bcd60e51b815260206004820152602160248201527f455243373231413a206d696e7420746f20746865207a65726f2061646472657360448201527f73000000000000000000000000000000000000000000000000000000000000006064820152608401610ae6565b613795816000541190565b156137e25760405162461bcd60e51b815260206004820152601d60248201527f455243373231413a20746f6b656e20616c7265616479206d696e7465640000006044820152606401610ae6565b7f00000000000000000000000000000000000000000000000000000000000000008311156138785760405162461bcd60e51b815260206004820152602260248201527f455243373231413a207175616e7469747920746f206d696e7420746f6f20686960448201527f67680000000000000000000000000000000000000000000000000000000000006064820152608401610ae6565b6001600160a01b0384166000908152600460209081526040918290208251808401845290546fffffffffffffffffffffffffffffffff808216835270010000000000000000000000000000000090910416918101919091528151808301909252805190919081906138ea908790614496565b6fffffffffffffffffffffffffffffffff1681526020018583602001516139119190614496565b6fffffffffffffffffffffffffffffffff9081169091526001600160a01b03808816600081815260046020908152604080832087519783015187167001000000000000000000000000000000000297909616969096179094558451808601865291825267ffffffffffffffff428116838601908152888352600390955294812091518254945190951674010000000000000000000000000000000000000000027fffffffff0000000000000000000000000000000000000000000000000000000090941694909216939093179190911790915582905b85811015613ac65760405182906001600160a01b038916906000907fddf252ad1be2c89b69c2b068fc378daa952ba7f163c4a11628f55a4df523b3ef908290a4613a34600088848861340f565b613aa65760405162461bcd60e51b815260206004820152603360248201527f455243373231413a207472616e7366657220746f206e6f6e204552433732315260448201527f6563656976657220696d706c656d656e746572000000000000000000000000006064820152608401610ae6565b81613ab081614617565b9250508080613abe90614617565b9150506139e7565b506000819055611793565b600080825160411415613b085760208301516040840151606085015160001a613afc87828585613d78565b94509450505050613b3a565b825160401415613b325760208301516040840151613b27868383613e65565b935093505050613b3a565b506000905060025b9250929050565b6000816004811115613b6357634e487b7160e01b600052602160045260246000fd5b1415613b6c5750565b6001816004811115613b8e57634e487b7160e01b600052602160045260246000fd5b1415613bdc5760405162461bcd60e51b815260206004820152601860248201527f45434453413a20696e76616c6964207369676e617475726500000000000000006044820152606401610ae6565b6002816004811115613bfe57634e487b7160e01b600052602160045260246000fd5b1415613c4c5760405162461bcd60e51b815260206004820152601f60248201527f45434453413a20696e76616c6964207369676e6174757265206c656e677468006044820152606401610ae6565b6003816004811115613c6e57634e487b7160e01b600052602160045260246000fd5b1415613ce25760405162461bcd60e51b815260206004820152602260248201527f45434453413a20696e76616c6964207369676e6174757265202773272076616c60448201527f75650000000000000000000000000000000000000000000000000000000000006064820152608401610ae6565b6004816004811115613d0457634e487b7160e01b600052602160045260246000fd5b141561135a5760405162461bcd60e51b815260206004820152602260248201527f45434453413a20696e76616c6964207369676e6174757265202776272076616c60448201527f75650000000000000000000000000000000000000000000000000000000000006064820152608401610ae6565b6000807f7fffffffffffffffffffffffffffffff5d576e7357a4501ddfe92f46681b20a0831115613daf5750600090506003613e5c565b8460ff16601b14158015613dc757508460ff16601c14155b15613dd85750600090506004613e5c565b6040805160008082526020820180845289905260ff881692820192909252606081018690526080810185905260019060a0016020604051602081039080840390855afa158015613e2c573d6000803e3d6000fd5b5050604051601f1901519150506001600160a01b038116613e5557600060019250925050613e5c565b9150600090505b94509492505050565b6000807f7fffffffffffffffffffffffffffffffffffffffffffffffffffffffffffffff831681613e9b60ff86901c601b6144ca565b9050613ea987828885613d78565b935093505050935093915050565b828054613ec3906145dc565b90600052602060002090601f016020900481019282613ee55760008555613f2b565b82601f10613efe57805160ff1916838001178555613f2b565b82800160010185558215613f2b579182015b82811115613f2b578251825591602001919060010190613f10565b506113f09291505b808211156113f05760008155600101613f33565b600067ffffffffffffffff80841115613f6257613f62614690565b604051601f8501601f19908116603f01168101908282118183101715613f8a57613f8a614690565b81604052809350858152868686011115613fa357600080fd5b858560208301376000602087830101525050509392505050565b600060208284031215613fce578081fd5b8135613fd9816146a6565b9392505050565b60008060408385031215613ff2578081fd5b8235613ffd816146a6565b9150602083013561400d816146a6565b809150509250929050565b60008060006060848603121561402c578081fd5b8335614037816146a6565b92506020840135614047816146a6565b929592945050506040919091013590565b6000806000806080858703121561406d578081fd5b8435614078816146a6565b93506020850135614088816146a6565b925060408501359150606085013567ffffffffffffffff8111156140aa578182fd5b8501601f810187136140ba578182fd5b6140c987823560208401613f47565b91505092959194509250565b600080604083850312156140e7578182fd5b82356140f2816146a6565b9150602083013561400d816146bb565b60008060408385031215614114578182fd5b823561411f816146a6565b946020939093013593505050565b600080600060408486031215614141578283fd5b833567ffffffffffffffff80821115614158578485fd5b818601915086601f83011261416b578485fd5b813581811115614179578586fd5b8760208260051b850101111561418d578586fd5b6020928301989097509590910135949350505050565b6000602082840312156141b4578081fd5b8151613fd9816146bb565b6000602082840312156141d0578081fd5b8135613fd9816146c9565b6000602082840312156141ec578081fd5b8151613fd9816146c9565b6000806000806060858703121561420c578182fd5b843567ffffffffffffffff80821115614223578384fd5b818701915087601f830112614236578384fd5b813581811115614244578485fd5b886020828501011115614255578485fd5b6020928301999098509187013596604001359550909350505050565b600060208284031215614282578081fd5b813567ffffffffffffffff811115614298578182fd5b8201601f810184136142a8578182fd5b6135b584823560208401613f47565b6000602082840312156142c8578081fd5b5035919050565b6000602082840312156142e0578081fd5b5051919050565b600081518084526142ff81602086016020860161457b565b601f01601f19169290920160200192915050565b6000815161432581856020860161457b565b9290920192915050565b600080845482600182811c91508083168061434b57607f831692505b602080841082141561436b57634e487b7160e01b87526022600452602487fd5b81801561437f57600181146143ae576143da565b7fffffffffffffffffffffffffffffffffffffffffffffffffffffffffffffff008616895284890196506143da565b60008b815260209020885b868110156143d25781548b8201529085019083016143b9565b505084890196505b5050505050506144166143ed8286614313565b7f2e6a736f6e000000000000000000000000000000000000000000000000000000815260050190565b95945050505050565b60006001600160a01b0380871683528086166020840152508360408301526080606083015261445160808301846142e7565b9695505050505050565b602081016004831061447d57634e487b7160e01b600052602160045260246000fd5b91905290565b602081526000613fd960208301846142e7565b60006fffffffffffffffffffffffffffffffff8083168185168083038211156144c1576144c1614664565b01949350505050565b600082198211156144dd576144dd614664565b500190565b6000826144f1576144f161467a565b500490565b6000817fffffffffffffffffffffffffffffffffffffffffffffffffffffffffffffffff048311821515161561452e5761452e614664565b500290565b60006fffffffffffffffffffffffffffffffff8381169083168181101561455c5761455c614664565b039392505050565b60008282101561457657614576614664565b500390565b60005b8381101561459657818101518382015260200161457e565b83811115611f015750506000910152565b6000816145b6576145b6614664565b507fffffffffffffffffffffffffffffffffffffffffffffffffffffffffffffffff0190565b600181811c908216806145f057607f821691505b6020821081141561461157634e487b7160e01b600052602260045260246000fd5b50919050565b60007fffffffffffffffffffffffffffffffffffffffffffffffffffffffffffffffff82141561464957614649614664565b5060010190565b60008261465f5761465f61467a565b500690565b634e487b7160e01b600052601160045260246000fd5b634e487b7160e01b600052601260045260246000fd5b634e487b7160e01b600052604160045260246000fd5b6001600160a01b038116811461135a57600080fd5b801515811461135a57600080fd5b7fffffffff000000000000000000000000000000000000000000000000000000008116811461135a57600080fdfea264697066735822122014f398b0c40187c0262be6b78a7ebf9bd30d8f8b5fb1ee643763def22699bf8964736f6c63430008040033",
  "linkReferences": {},
  "deployedLinkReferences": {}
}