{
  "_format": "hh-sol-artifact-1",
  "contractName": "Showcase",
  "sourceName": "contracts/Showcase.sol",
  "abi": [
    {
      "inputs": [],
      "stateMutability": "nonpayable",
      "type": "constructor"
    },
    {
      "inputs": [],
      "name": "ApprovalCallerNotOwnerNorApproved",
      "type": "error"
    },
    {
      "inputs": [],
      "name": "ApprovalQueryForNonexistentToken",
      "type": "error"
    },
    {
      "inputs": [],
      "name": "ApprovalToCurrentOwner",
      "type": "error"
    },
    {
      "inputs": [],
      "name": "ApproveToCaller",
      "type": "error"
    },
    {
      "inputs": [],
      "name": "BalanceQueryForZeroAddress",
      "type": "error"
    },
    {
      "inputs": [],
      "name": "MintToZeroAddress",
      "type": "error"
    },
    {
      "inputs": [],
      "name": "MintZeroQuantity",
      "type": "error"
    },
    {
      "inputs": [],
      "name": "OwnerQueryForNonexistentToken",
      "type": "error"
    },
    {
      "inputs": [],
      "name": "TransferCallerNotOwnerNorApproved",
      "type": "error"
    },
    {
      "inputs": [],
      "name": "TransferFromIncorrectOwner",
      "type": "error"
    },
    {
      "inputs": [],
      "name": "TransferToNonERC721ReceiverImplementer",
      "type": "error"
    },
    {
      "inputs": [],
      "name": "TransferToZeroAddress",
      "type": "error"
    },
    {
      "inputs": [],
      "name": "URIQueryForNonexistentToken",
      "type": "error"
    },
    {
      "anonymous": false,
      "inputs": [
        {
          "indexed": true,
          "internalType": "address",
          "name": "owner",
          "type": "address"
        },
        {
          "indexed": true,
          "internalType": "address",
          "name": "approved",
          "type": "address"
        },
        {
          "indexed": true,
          "internalType": "uint256",
          "name": "tokenId",
          "type": "uint256"
        }
      ],
      "name": "Approval",
      "type": "event"
    },
    {
      "anonymous": false,
      "inputs": [
        {
          "indexed": true,
          "internalType": "address",
          "name": "owner",
          "type": "address"
        },
        {
          "indexed": true,
          "internalType": "address",
          "name": "operator",
          "type": "address"
        },
        {
          "indexed": false,
          "internalType": "bool",
          "name": "approved",
          "type": "bool"
        }
      ],
      "name": "ApprovalForAll",
      "type": "event"
    },
    {
      "anonymous": false,
      "inputs": [
        {
          "indexed": true,
          "internalType": "address",
          "name": "previousOwner",
          "type": "address"
        },
        {
          "indexed": true,
          "internalType": "address",
          "name": "newOwner",
          "type": "address"
        }
      ],
      "name": "OwnershipTransferred",
      "type": "event"
    },
    {
      "anonymous": false,
      "inputs": [
        {
          "indexed": true,
          "internalType": "address",
          "name": "from",
          "type": "address"
        },
        {
          "indexed": true,
          "internalType": "address",
          "name": "to",
          "type": "address"
        },
        {
          "indexed": true,
          "internalType": "uint256",
          "name": "tokenId",
          "type": "uint256"
        }
      ],
      "name": "Transfer",
      "type": "event"
    },
    {
      "inputs": [
        {
          "internalType": "address",
          "name": "to",
          "type": "address"
        },
        {
          "internalType": "uint256",
          "name": "tokenId",
          "type": "uint256"
        }
      ],
      "name": "approve",
      "outputs": [],
      "stateMutability": "nonpayable",
      "type": "function"
    },
    {
      "inputs": [
        {
          "internalType": "address",
          "name": "owner",
          "type": "address"
        }
      ],
      "name": "balanceOf",
      "outputs": [
        {
          "internalType": "uint256",
          "name": "",
          "type": "uint256"
        }
      ],
      "stateMutability": "view",
      "type": "function"
    },
    {
      "inputs": [],
      "name": "baseURI",
      "outputs": [
        {
          "internalType": "string",
          "name": "",
          "type": "string"
        }
      ],
      "stateMutability": "view",
      "type": "function"
    },
    {
      "inputs": [],
      "name": "batchSize",
      "outputs": [
        {
          "internalType": "uint256",
          "name": "",
          "type": "uint256"
        }
      ],
      "stateMutability": "view",
      "type": "function"
    },
    {
      "inputs": [
        {
          "internalType": "uint256",
          "name": "tokenId",
          "type": "uint256"
        }
      ],
      "name": "getApproved",
      "outputs": [
        {
          "internalType": "address",
          "name": "",
          "type": "address"
        }
      ],
      "stateMutability": "view",
      "type": "function"
    },
    {
      "inputs": [
        {
          "internalType": "address",
          "name": "owner",
          "type": "address"
        },
        {
          "internalType": "address",
          "name": "operator",
          "type": "address"
        }
      ],
      "name": "isApprovedForAll",
      "outputs": [
        {
          "internalType": "bool",
          "name": "",
          "type": "bool"
        }
      ],
      "stateMutability": "view",
      "type": "function"
    },
    {
      "inputs": [],
      "name": "maxMint",
      "outputs": [
        {
          "internalType": "uint256",
          "name": "",
          "type": "uint256"
        }
      ],
      "stateMutability": "view",
      "type": "function"
    },
    {
      "inputs": [],
      "name": "maxSupply",
      "outputs": [
        {
          "internalType": "uint256",
          "name": "",
          "type": "uint256"
        }
      ],
      "stateMutability": "view",
      "type": "function"
    },
    {
      "inputs": [
        {
          "internalType": "uint256",
          "name": "quantity",
          "type": "uint256"
        }
      ],
      "name": "mint",
      "outputs": [],
      "stateMutability": "payable",
      "type": "function"
    },
    {
      "inputs": [],
      "name": "name",
      "outputs": [
        {
          "internalType": "string",
          "name": "",
          "type": "string"
        }
      ],
      "stateMutability": "view",
      "type": "function"
    },
    {
      "inputs": [],
      "name": "owner",
      "outputs": [
        {
          "internalType": "address",
          "name": "",
          "type": "address"
        }
      ],
      "stateMutability": "view",
      "type": "function"
    },
    {
      "inputs": [
        {
          "internalType": "uint256",
          "name": "tokenId",
          "type": "uint256"
        }
      ],
      "name": "ownerOf",
      "outputs": [
        {
          "internalType": "address",
          "name": "",
          "type": "address"
        }
      ],
      "stateMutability": "view",
      "type": "function"
    },
    {
      "inputs": [],
      "name": "price",
      "outputs": [
        {
          "internalType": "uint256",
          "name": "",
          "type": "uint256"
        }
      ],
      "stateMutability": "view",
      "type": "function"
    },
    {
      "inputs": [],
      "name": "renounceOwnership",
      "outputs": [],
      "stateMutability": "nonpayable",
      "type": "function"
    },
    {
      "inputs": [
        {
          "internalType": "address",
          "name": "from",
          "type": "address"
        },
        {
          "internalType": "address",
          "name": "to",
          "type": "address"
        },
        {
          "internalType": "uint256",
          "name": "tokenId",
          "type": "uint256"
        }
      ],
      "name": "safeTransferFrom",
      "outputs": [],
      "stateMutability": "nonpayable",
      "type": "function"
    },
    {
      "inputs": [
        {
          "internalType": "address",
          "name": "from",
          "type": "address"
        },
        {
          "internalType": "address",
          "name": "to",
          "type": "address"
        },
        {
          "internalType": "uint256",
          "name": "tokenId",
          "type": "uint256"
        },
        {
          "internalType": "bytes",
          "name": "_data",
          "type": "bytes"
        }
      ],
      "name": "safeTransferFrom",
      "outputs": [],
      "stateMutability": "nonpayable",
      "type": "function"
    },
    {
      "inputs": [
        {
          "internalType": "address",
          "name": "operator",
          "type": "address"
        },
        {
          "internalType": "bool",
          "name": "approved",
          "type": "bool"
        }
      ],
      "name": "setApprovalForAll",
      "outputs": [],
      "stateMutability": "nonpayable",
      "type": "function"
    },
    {
      "inputs": [
        {
          "internalType": "string",
          "name": "baseURI_",
          "type": "string"
        }
      ],
      "name": "setBaseURI",
      "outputs": [],
      "stateMutability": "nonpayable",
      "type": "function"
    },
    {
      "inputs": [
        {
          "internalType": "uint256",
          "name": "_amount",
          "type": "uint256"
        }
      ],
      "name": "setMaxMint",
      "outputs": [],
      "stateMutability": "nonpayable",
      "type": "function"
    },
    {
      "inputs": [
        {
          "internalType": "uint256",
          "name": "_price",
          "type": "uint256"
        }
      ],
      "name": "setPricePS",
      "outputs": [],
      "stateMutability": "nonpayable",
      "type": "function"
    },
    {
      "inputs": [
        {
          "internalType": "string",
          "name": "_uri",
          "type": "string"
        }
      ],
      "name": "setUnrevealedURI",
      "outputs": [],
      "stateMutability": "nonpayable",
      "type": "function"
    },
    {
      "inputs": [
        {
          "internalType": "bytes4",
          "name": "interfaceId",
          "type": "bytes4"
        }
      ],
      "name": "supportsInterface",
      "outputs": [
        {
          "internalType": "bool",
          "name": "",
          "type": "bool"
        }
      ],
      "stateMutability": "view",
      "type": "function"
    },
    {
      "inputs": [],
      "name": "symbol",
      "outputs": [
        {
          "internalType": "string",
          "name": "",
          "type": "string"
        }
      ],
      "stateMutability": "view",
      "type": "function"
    },
    {
      "inputs": [
        {
          "internalType": "uint256",
          "name": "tokenId",
          "type": "uint256"
        }
      ],
      "name": "tokenURI",
      "outputs": [
        {
          "internalType": "string",
          "name": "",
          "type": "string"
        }
      ],
      "stateMutability": "view",
      "type": "function"
    },
    {
      "inputs": [],
      "name": "totalSupply",
      "outputs": [
        {
          "internalType": "uint256",
          "name": "",
          "type": "uint256"
        }
      ],
      "stateMutability": "view",
      "type": "function"
    },
    {
      "inputs": [
        {
          "internalType": "address",
          "name": "from",
          "type": "address"
        },
        {
          "internalType": "address",
          "name": "to",
          "type": "address"
        },
        {
          "internalType": "uint256",
          "name": "tokenId",
          "type": "uint256"
        }
      ],
      "name": "transferFrom",
      "outputs": [],
      "stateMutability": "nonpayable",
      "type": "function"
    },
    {
      "inputs": [
        {
          "internalType": "address",
          "name": "newOwner",
          "type": "address"
        }
      ],
      "name": "transferOwnership",
      "outputs": [],
      "stateMutability": "nonpayable",
      "type": "function"
    },
    {
      "inputs": [],
      "name": "unrevealedURI",
      "outputs": [
        {
          "internalType": "string",
          "name": "",
          "type": "string"
        }
      ],
      "stateMutability": "view",
      "type": "function"
    },
    {
      "inputs": [],
      "name": "withdraw",
      "outputs": [],
      "stateMutability": "nonpayable",
      "type": "function"
    }
  ],
  "bytecode": "0x6080604052612710600a55600a600b5566038d7ea4c68000600c556005600d553480156200002c57600080fd5b50604080518082018252600881526753686f776361736560c01b60208083019182528351808501909452600484526353484f5760e01b9084015281519192916200007991600291620000fe565b5080516200008f906003906020840190620000fe565b50506000805550620000a133620000ac565b6001600955620001e1565b600880546001600160a01b038381166001600160a01b0319831681179093556040519116919082907f8be0079c531659141344cd1fd0a4f28419497f9722a3daafe3b4186f6b6457e090600090a35050565b8280546200010c90620001a4565b90600052602060002090601f0160209004810192826200013057600085556200017b565b82601f106200014b57805160ff19168380011785556200017b565b828001600101855582156200017b579182015b828111156200017b5782518255916020019190600101906200015e565b50620001899291506200018d565b5090565b5b808211156200018957600081556001016200018e565b600181811c90821680620001b957607f821691505b60208210811415620001db57634e487b7160e01b600052602260045260246000fd5b50919050565b611ec580620001f16000396000f3fe6080604052600436106101c25760003560e01c806370a08231116100f7578063a22cb46511610095578063e985e9c511610064578063e985e9c5146104b7578063f2fde38b14610500578063f4daaba114610520578063fe2c7fee1461053657600080fd5b8063a22cb46514610441578063b88d4fde14610461578063c87b56dd14610481578063d5abeb01146104a157600080fd5b80638da5cb5b116100d15780638da5cb5b146103e557806395d89b4114610403578063a035b1fe14610418578063a0712d681461042e57600080fd5b806370a082311461039a578063715018a6146103ba5780637501f741146103cf57600080fd5b806342842e0e116101645780635ac0605d1161013e5780635ac0605d146103305780636352211e146103505780636c0360eb146103705780637035bf181461038557600080fd5b806342842e0e146102d0578063547520fe146102f057806355f804b31461031057600080fd5b8063095ea7b3116101a0578063095ea7b31461025657806318160ddd1461027857806323b872dd1461029b5780633ccfd60b146102bb57600080fd5b806301ffc9a7146101c757806306fdde03146101fc578063081812fc1461021e575b600080fd5b3480156101d357600080fd5b506101e76101e2366004611b23565b610556565b60405190151581526020015b60405180910390f35b34801561020857600080fd5b506102116105f3565b6040516101f39190611d16565b34801561022a57600080fd5b5061023e610239366004611ba6565b610685565b6040516001600160a01b0390911681526020016101f3565b34801561026257600080fd5b50610276610271366004611af9565b6106e2565b005b34801561028457600080fd5b50600154600054035b6040519081526020016101f3565b3480156102a757600080fd5b506102766102b6366004611a05565b6107f4565b3480156102c757600080fd5b50610276610804565b3480156102dc57600080fd5b506102766102eb366004611a05565b6108d7565b3480156102fc57600080fd5b5061027661030b366004611ba6565b6108f2565b34801561031c57600080fd5b5061027661032b366004611b5d565b6109a1565b34801561033c57600080fd5b5061027661034b366004611ba6565b610a12565b34801561035c57600080fd5b5061023e61036b366004611ba6565b610a71565b34801561037c57600080fd5b50610211610a7c565b34801561039157600080fd5b50610211610b0a565b3480156103a657600080fd5b5061028d6103b53660046119b7565b610b17565b3480156103c657600080fd5b50610276610b7f565b3480156103db57600080fd5b5061028d600b5481565b3480156103f157600080fd5b506008546001600160a01b031661023e565b34801561040f57600080fd5b50610211610be5565b34801561042457600080fd5b5061028d600c5481565b61027661043c366004611ba6565b610bf4565b34801561044d57600080fd5b5061027661045c366004611abd565b610def565b34801561046d57600080fd5b5061027661047c366004611a41565b610e9e565b34801561048d57600080fd5b5061021161049c366004611ba6565b610ee8565b3480156104ad57600080fd5b5061028d600a5481565b3480156104c357600080fd5b506101e76104d23660046119d2565b6001600160a01b03918216600090815260076020908152604080832093909416825291909152205460ff1690565b34801561050c57600080fd5b5061027661051b3660046119b7565b61103c565b34801561052c57600080fd5b5061028d600d5481565b34801561054257600080fd5b50610276610551366004611b5d565b61111b565b60007f01ffc9a7000000000000000000000000000000000000000000000000000000006001600160e01b0319831614806105b957507f80ac58cd000000000000000000000000000000000000000000000000000000006001600160e01b03198316145b806105ed57507f5b5e139f000000000000000000000000000000000000000000000000000000006001600160e01b03198316145b92915050565b60606002805461060290611db7565b80601f016020809104026020016040519081016040528092919081815260200182805461062e90611db7565b801561067b5780601f106106505761010080835404028352916020019161067b565b820191906000526020600020905b81548152906001019060200180831161065e57829003601f168201915b5050505050905090565b600061069082611188565b6106c6576040517fcf4700e400000000000000000000000000000000000000000000000000000000815260040160405180910390fd5b506000908152600660205260409020546001600160a01b031690565b60006106ed826111af565b9050806001600160a01b0316836001600160a01b0316141561073b576040517f943f7b8c00000000000000000000000000000000000000000000000000000000815260040160405180910390fd5b336001600160a01b0382161461078b5761075581336104d2565b61078b576040517fcfb3b94200000000000000000000000000000000000000000000000000000000815260040160405180910390fd5b600082815260066020526040808220805473ffffffffffffffffffffffffffffffffffffffff19166001600160a01b0387811691821790925591518593918516917f8c5be1e5ebec7d5bd14f71427d1e84f3dd0314c0f7b2291e5b200ac8c7c3b92591a4505050565b6107ff838383611230565b505050565b6008546001600160a01b031633146108635760405162461bcd60e51b815260206004820181905260248201527f4f776e61626c653a2063616c6c6572206973206e6f7420746865206f776e657260448201526064015b60405180910390fd5b60006108776008546001600160a01b031690565b6001600160a01b03164760405160006040518083038185875af1925050503d80600081146108c1576040519150601f19603f3d011682016040523d82523d6000602084013e6108c6565b606091505b50509050806108d457600080fd5b50565b6107ff83838360405180602001604052806000815250610e9e565b6008546001600160a01b0316331461094c5760405162461bcd60e51b815260206004820181905260248201527f4f776e61626c653a2063616c6c6572206973206e6f7420746865206f776e6572604482015260640161085a565b6000811161099c5760405162461bcd60e51b815260206004820152600e60248201527f414d4f554e545f544f4f5f4c4f57000000000000000000000000000000000000604482015260640161085a565b600b55565b6008546001600160a01b031633146109fb5760405162461bcd60e51b815260206004820181905260248201527f4f776e61626c653a2063616c6c6572206973206e6f7420746865206f776e6572604482015260640161085a565b8051610a0e90600e90602084019061188c565b5050565b6008546001600160a01b03163314610a6c5760405162461bcd60e51b815260206004820181905260248201527f4f776e61626c653a2063616c6c6572206973206e6f7420746865206f776e6572604482015260640161085a565b600c55565b60006105ed826111af565b600e8054610a8990611db7565b80601f0160208091040260200160405190810160405280929190818152602001828054610ab590611db7565b8015610b025780601f10610ad757610100808354040283529160200191610b02565b820191906000526020600020905b815481529060010190602001808311610ae557829003601f168201915b505050505081565b600f8054610a8990611db7565b60006001600160a01b038216610b59576040517f8f4eb60400000000000000000000000000000000000000000000000000000000815260040160405180910390fd5b506001600160a01b031660009081526005602052604090205467ffffffffffffffff1690565b6008546001600160a01b03163314610bd95760405162461bcd60e51b815260206004820181905260248201527f4f776e61626c653a2063616c6c6572206973206e6f7420746865206f776e6572604482015260640161085a565b610be36000611445565b565b60606003805461060290611db7565b60026009541415610c475760405162461bcd60e51b815260206004820152601f60248201527f5265656e7472616e637947756172643a207265656e7472616e742063616c6c00604482015260640161085a565b6002600955600a5481610c5d6001546000540390565b610c679190611d29565b1115610cb55760405162461bcd60e51b815260206004820152601b60248201527f4d41585f535550504c593a20414d4f554e545f544f4f5f484947480000000000604482015260640161085a565b600c54610cc29082611d55565b341015610d115760405162461bcd60e51b815260206004820152601460248201527f50524943453a2056414c55455f544f4f5f4c4f57000000000000000000000000604482015260640161085a565b600d54811115610d635760405162461bcd60e51b815260206004820152601160248201527f5175616e7469747920746f6f2068696768000000000000000000000000000000604482015260640161085a565b600b5433600090815260056020526040908190205483911c67ffffffffffffffff16610d8f9190611d29565b1115610ddd5760405162461bcd60e51b815260206004820152601960248201527f4d41585f4d494e543a20414d4f554e545f544f4f5f4849474800000000000000604482015260640161085a565b610de733826114a4565b506001600955565b6001600160a01b038216331415610e32576040517fb06307db00000000000000000000000000000000000000000000000000000000815260040160405180910390fd5b3360008181526007602090815260408083206001600160a01b03871680855290835292819020805460ff191686151590811790915590519081529192917f17307eab39ab6107e8899845ad3d59bd9653f200f220920489ca2b5937696c31910160405180910390a35050565b610ea9848484611230565b6001600160a01b0383163b15610ee257610ec5848484846114be565b610ee2576040516368d2bf6b60e11b815260040160405180910390fd5b50505050565b6060610ef382611188565b610f655760405162461bcd60e51b815260206004820152602f60248201527f4552433732314d657461646174613a2055524920717565727920666f72206e6f60448201527f6e6578697374656e7420746f6b656e0000000000000000000000000000000000606482015260840161085a565b6000600e8054610f7490611db7565b90501161100b57600f8054610f8890611db7565b80601f0160208091040260200160405190810160405280929190818152602001828054610fb490611db7565b80156110015780601f10610fd657610100808354040283529160200191611001565b820191906000526020600020905b815481529060010190602001808311610fe457829003601f168201915b50505050506105ed565b600e611016836115b6565b604051602001611027929190611c07565b60405160208183030381529060405292915050565b6008546001600160a01b031633146110965760405162461bcd60e51b815260206004820181905260248201527f4f776e61626c653a2063616c6c6572206973206e6f7420746865206f776e6572604482015260640161085a565b6001600160a01b0381166111125760405162461bcd60e51b815260206004820152602660248201527f4f776e61626c653a206e6577206f776e657220697320746865207a65726f206160448201527f6464726573730000000000000000000000000000000000000000000000000000606482015260840161085a565b6108d481611445565b6008546001600160a01b031633146111755760405162461bcd60e51b815260206004820181905260248201527f4f776e61626c653a2063616c6c6572206973206e6f7420746865206f776e6572604482015260640161085a565b8051610a0e90600f90602084019061188c565b60008054821080156105ed575050600090815260046020526040902054600160e01b161590565b6000816000548110156111fe57600081815260046020526040902054600160e01b81166111fc575b806111f55750600019016000818152600460205260409020546111d7565b9392505050565b505b6040517fdf2d9b4200000000000000000000000000000000000000000000000000000000815260040160405180910390fd5b600061123b826111af565b9050836001600160a01b0316816001600160a01b031614611288576040517fa114810000000000000000000000000000000000000000000000000000000000815260040160405180910390fd5b6000336001600160a01b03861614806112a657506112a685336104d2565b806112c15750336112b684610685565b6001600160a01b0316145b9050806112fa576040517f59c896be00000000000000000000000000000000000000000000000000000000815260040160405180910390fd5b6001600160a01b03841661133a576040517fea553b3400000000000000000000000000000000000000000000000000000000815260040160405180910390fd5b6000838152600660209081526040808320805473ffffffffffffffffffffffffffffffffffffffff191690556001600160a01b0388811684526005835281842080546000190190558716835280832080546001019055858352600490915290207c02000000000000000000000000000000000000000000000000000000004260a01b8617811790915582166113fd57600183016000818152600460205260409020546113fb5760005481146113fb5760008181526004602052604090208390555b505b82846001600160a01b0316866001600160a01b03167fddf252ad1be2c89b69c2b068fc378daa952ba7f163c4a11628f55a4df523b3ef60405160405180910390a45050505050565b600880546001600160a01b0383811673ffffffffffffffffffffffffffffffffffffffff19831681179093556040519116919082907f8be0079c531659141344cd1fd0a4f28419497f9722a3daafe3b4186f6b6457e090600090a35050565b610a0e8282604051806020016040528060008152506116e8565b604051630a85bd0160e11b81526000906001600160a01b0385169063150b7a02906114f3903390899088908890600401611cda565b602060405180830381600087803b15801561150d57600080fd5b505af192505050801561153d575060408051601f3d908101601f1916820190925261153a91810190611b40565b60015b611598573d80801561156b576040519150601f19603f3d011682016040523d82523d6000602084013e611570565b606091505b508051611590576040516368d2bf6b60e11b815260040160405180910390fd5b805181602001fd5b6001600160e01b031916630a85bd0160e11b1490505b949350505050565b6060816115f657505060408051808201909152600181527f3000000000000000000000000000000000000000000000000000000000000000602082015290565b8160005b8115611620578061160a81611df2565b91506116199050600a83611d41565b91506115fa565b60008167ffffffffffffffff81111561163b5761163b611e63565b6040519080825280601f01601f191660200182016040528015611665576020820181803683370190505b5090505b84156115ae5761167a600183611d74565b9150611687600a86611e0d565b611692906030611d29565b60f81b8183815181106116a7576116a7611e4d565b60200101907effffffffffffffffffffffffffffffffffffffffffffffffffffffffffffff1916908160001a9053506116e1600a86611d41565b9450611669565b6000546001600160a01b03841661172b576040517f2e07630000000000000000000000000000000000000000000000000000000000815260040160405180910390fd5b82611762576040517fb562e8dd00000000000000000000000000000000000000000000000000000000815260040160405180910390fd5b6001600160a01b03841660008181526005602090815260408083208054680100000000000000018902019055848352600490915290204260a01b86176001861460e11b1790558190818501903b15611837575b60405182906001600160a01b038816906000907fddf252ad1be2c89b69c2b068fc378daa952ba7f163c4a11628f55a4df523b3ef908290a461180060008784806001019550876114be565b61181d576040516368d2bf6b60e11b815260040160405180910390fd5b8082106117b557826000541461183257600080fd5b61187c565b5b6040516001830192906001600160a01b038816906000907fddf252ad1be2c89b69c2b068fc378daa952ba7f163c4a11628f55a4df523b3ef908290a4808210611838575b506000908155610ee29085838684565b82805461189890611db7565b90600052602060002090601f0160209004810192826118ba5760008555611900565b82601f106118d357805160ff1916838001178555611900565b82800160010185558215611900579182015b828111156119005782518255916020019190600101906118e5565b5061190c929150611910565b5090565b5b8082111561190c5760008155600101611911565b600067ffffffffffffffff8084111561194057611940611e63565b604051601f8501601f19908116603f0116810190828211818310171561196857611968611e63565b8160405280935085815286868601111561198157600080fd5b858560208301376000602087830101525050509392505050565b80356001600160a01b03811681146119b257600080fd5b919050565b6000602082840312156119c957600080fd5b6111f58261199b565b600080604083850312156119e557600080fd5b6119ee8361199b565b91506119fc6020840161199b565b90509250929050565b600080600060608486031215611a1a57600080fd5b611a238461199b565b9250611a316020850161199b565b9150604084013590509250925092565b60008060008060808587031215611a5757600080fd5b611a608561199b565b9350611a6e6020860161199b565b925060408501359150606085013567ffffffffffffffff811115611a9157600080fd5b8501601f81018713611aa257600080fd5b611ab187823560208401611925565b91505092959194509250565b60008060408385031215611ad057600080fd5b611ad98361199b565b915060208301358015158114611aee57600080fd5b809150509250929050565b60008060408385031215611b0c57600080fd5b611b158361199b565b946020939093013593505050565b600060208284031215611b3557600080fd5b81356111f581611e79565b600060208284031215611b5257600080fd5b81516111f581611e79565b600060208284031215611b6f57600080fd5b813567ffffffffffffffff811115611b8657600080fd5b8201601f81018413611b9757600080fd5b6115ae84823560208401611925565b600060208284031215611bb857600080fd5b5035919050565b60008151808452611bd7816020860160208601611d8b565b601f01601f19169290920160200192915050565b60008151611bfd818560208601611d8b565b9290920192915050565b600080845481600182811c915080831680611c2357607f831692505b6020808410821415611c4357634e487b7160e01b86526022600452602486fd5b818015611c575760018114611c6857611c95565b60ff19861689528489019650611c95565b60008b81526020902060005b86811015611c8d5781548b820152908501908301611c74565b505084890196505b505050505050611cd1611ca88286611beb565b7f2e6a736f6e000000000000000000000000000000000000000000000000000000815260050190565b95945050505050565b60006001600160a01b03808716835280861660208401525083604083015260806060830152611d0c6080830184611bbf565b9695505050505050565b6020815260006111f56020830184611bbf565b60008219821115611d3c57611d3c611e21565b500190565b600082611d5057611d50611e37565b500490565b6000816000190483118215151615611d6f57611d6f611e21565b500290565b600082821015611d8657611d86611e21565b500390565b60005b83811015611da6578181015183820152602001611d8e565b83811115610ee25750506000910152565b600181811c90821680611dcb57607f821691505b60208210811415611dec57634e487b7160e01b600052602260045260246000fd5b50919050565b6000600019821415611e0657611e06611e21565b5060010190565b600082611e1c57611e1c611e37565b500690565b634e487b7160e01b600052601160045260246000fd5b634e487b7160e01b600052601260045260246000fd5b634e487b7160e01b600052603260045260246000fd5b634e487b7160e01b600052604160045260246000fd5b6001600160e01b0319811681146108d457600080fdfea264697066735822122077c794935619f5c2c76fc43fc634efbdd101fe661d8f72d824c83fdf90168a7964736f6c63430008070033",
  "linkReferences": {},
  "deployedLinkReferences": {}
}